:020000040800F2
:10000000A8390020A97C0008297B00082B7B000868
:100010002D7B00082F7B0008317B000800000000CA
:10002000000000000000000000000000337B00081A
:10003000357B000800000000377B0008397B000892
:10004000D97C0008DD7C0008E17C0008E57C000824
:10005000E97C0008ED7C0008F17C0008F57C0008D4
:10006000F97C0008FD7C0008017D0008057D000882
:10007000097D00080D7D0008117D0008157D000830
:10008000417B00084B7B0008197D00081D7D00089E
:10009000217D0008257D0008297D00082D7D0008B0
:1000A000317D0008357D0008397D00083D7D000860
:1000B000417D0008457D0008497D00084D7D000810
:1000C000517D0008557D0008597D00085D7D0008C0
:1000D000617D0008657D0008557B0008697D00088A
:1000E0006D7D0008717D0008757D0008797D000830
:1000F0007D7D0008817D0008857D0008897D0008E0
:100100008D7D0008917D0008957D0008997D00088F
:100110009D7D0008A17D0008A57D0008A97D00083F
:10012000AD7D0008B17D0008B57D0008B97D0008EF
:10013000BD7D00080000000000000000C17D000837
:10014000C57D0008C97D0008CD7D0008D17D00086F
:10015000D57D0008D97D0008DD7D0008E17D00081F
:10016000E57D0008E97D0008ED7D0008F17D0008CF
:10017000F57D0008F97D0008FD7D00080000000005
:1001800000000000017E00080000000000000000E8
:10019000057E00080000000000000000097E000845
:1001A0000000000000000000000000000D7E0008BC
:1001B000117E0008157E0008197E00081D7E0008CB
:1001C000217E00080000803F00000000C4FE7F3F49
:1001D000890FC93B11FB7F3F900E493CE6F47F3FFE
:1001E000B6C9963C43EC7F3FB00AC93C29E17F3F4A
:1001F000B949FB3C98D37F3F2CC3163D8FC37F3F4B
:1002000007E02F3D0FB17F3F2FFB483D189C7F3FFC
:100210006814623DAB847F3F742B7B3DC76A7F3F90
:100220000A208A3D6D4E7F3F05A9963D9D2F7F3F59
:100230008C30A33D580E7F3F80B6AF3D9DEA7E3F98
:10024000C33ABC3D6DC47E3F36BDC83DC99B7E3FB1
:10025000B93DD53DB0707E3F2EBCE13D23437E3F8E
:100260007638EE3D24137E3F73B2FA3DB1E07D3F18
:100270000295033ECCAB7D3F86CF093E74747D3F33
:10028000B708103EAC3A7D3F8340163E73FE7C3F7C
:10029000DE761C3EC9BF7C3FB6AB223EB07E7C3FC3
:1002A000FCDE283E283B7C3FA2102F3E31F57B3FF1
:1002B0009840353ECDAC7B3FCF6E3B3EFC617B3FF3
:1002C000379B413EBE147B3FC2C5473E16C57A3FB1
:1002D00060EE4D3E02737A3F0115543E841E7A3F14
:1002E00097395A3E9DC7793F135C603E4E6E793F09
:1002F000667C663E9812793F7F9A6C3E7BB4783F6D
:1003000051B6723EF853783FCCCF783E10F1773F2C
:10031000E1E67E3EC58B773FC07D823E1724773F66
:10032000CE86853E07BA763F938E883E974D763FC0
:1003300007958B3EC6DE753F229A8E3E976D753FC0
:10034000DD9D913E0BFA743F31A0943E2284743FB0
:1003500017A1973EDD0B743F86A09A3E3F91733FF5
:10036000789E9D3E4714733FE59AA03EF894723FF5
:10037000C595A33E5213723F128FA63E578F713F11
:10038000C486A93E0809713FD47CAC3E6680703FAC
:100390003A71AF3E73F56F3FEF63B23E30686F3F27
:1003A000EC54B53E9ED86E3F2A44B83EBE466E3FE2
:1003B000A031BB3E93B26D3F4A1DBE3E1D1C6D3F3A
:1003C0001E07C13E5E836C3F15EFC33E58E86B3F8E
:1003D00029D5C63E0C4B6B3F53B9C93E7BAB6A3F38
:1003E0008B9BCC3EA7096A3FCA7BCF3E9165693F94
:1003F000095AD23E3CBF683F4136D53EA816683FF9
:100400006B10D83ED86B673F80E8DA3ECCBE663FC3
:1004100079BEDD3E880F663F4F92E03E0B5E653F42
:10042000FA63E33E59AA643F7533E63E73F4633FD3
:10043000B700E93E5A3C633FBBCBEB3E1082623FC4
:100440007994EE3E98C5613FEA5AF13EF206613F6B
:10045000071FF43E2146603FCBE0F63E27835F3F17
:100460002DA0F93E05BE5E3F275DFC3EBEF65D3F1A
:10047000B217FF3E532D5D3FE4E7003FC7615C3F8D
:10048000B142023F1A945B3F3D9C033F50C45A3F28
:1004900084F4043F6AF2593F824B063F6A1E593F7B
:1004A00036A1073F5348583F9BF5083F2670573FFA
:1004B000AD480A3FE595563F6B9A0B3F93B9553FC0
:1004C000D0EA0C3F31DB543FDA390E3FC3FA533FD9
:1004D00084870F3F4918533FCDD3103FC633523F57
:1004E000B01E123F3D4D513F2A68133FAF64503F4D
:1004F00039B0143F1F7A4F3FD9F6153F908D4E3FCC
:10050000073C173F029F4D3FC07F183F79AE4C3FDD
:1005100000C2193FF8BB4B3FC6021B3F7FC74A3F93
:100520000C421C3F12D1493FD17F1D3FB3D8483FF9
:1005300012BC1E3F65DE473FCBF61F3F2AE2463F17
:10054000F92F213F03E4453F9967223FF5E3443FFC
:10055000A99D233F00E2433F25D2243F29DE423FAD
:100560000A05263F70D8413F5636273FDAD0403F34
:100570000566283F67C73F3F1594293F1BBC3E3F98
:1005800082C02A3FF9AE3D3F4AEB2B3F03A03C3FE0
:1005900069142D3F3B8F3B3FDE3B2E3FA47C3A3F0F
:1005A000A5612F3F4268393FBB85303F1652383F27
:1005B0001DA8313F233A373FC9C8323F6C20363F30
:1005C000BCE7333FF304353FF304353FBCE7333F2B
:1005D0006C20363FC9C8323F233A373F1DA8313F10
:1005E0001652383FBB85303F4268393FA5612F3FE7
:1005F000A47C3A3FDE3B2E3F3B8F3B3F69142D3FAF
:1006000003A03C3F4AEB2B3FF9AE3D3F82C02A3F5F
:100610001BBC3E3F1594293F67C73F3F0566283FF7
:10062000DAD0403F5636273F70D8413F0A05263F73
:1006300029DE423F25D2243F00E2433FA99D233FCC
:10064000F5E3443F9967223F03E4453FF92F213FFB
:100650002AE2463FCBF61F3F65DE473F12BC1E3FF6
:10066000B3D8483FD17F1D3F12D1493F0C421C3FB8
:100670007FC74A3FC6021B3FF8BB4B3F00C2193F32
:1006800079AE4C3FC07F183F029F4D3F073C173F5C
:10069000908D4E3FD9F6153F1F7A4F3F39B0143F2A
:1006A000AF64503F2A68133F3D4D513FB01E123F8B
:1006B000C633523FCDD3103F4918533F84870F3F75
:1006C000C3FA533FDA390E3F31DB543FD0EA0C3FD7
:1006D00093B9553F6B9A0B3FE595563FAD480A3F9E
:1006E0002670573F9BF5083F5348583F36A1073FB8
:1006F0006A1E593F824B063F6AF2593F84F4043F19
:1007000050C45A3F3D9C033F1A945B3FB142023FA5
:10071000C7615C3FE4E7003F532D5D3FB217FF3EEA
:10072000BEF65D3F275DFC3E05BE5E3F2DA0F93E57
:1007300027835F3FCBE0F63E2146603F071FF43E34
:10074000F206613FEA5AF13E98C5613F7994EE3E68
:100750001082623FBBCBEB3E5A3C633FB700E93EA1
:1007600073F4633F7533E63E59AA643FFA63E33E90
:100770000B5E653F4F92E03E880F663F79BEDD3EDF
:10078000CCBE663F80E8DA3ED86B673F6B10D83E40
:10079000A816683F4136D53E3CBF683F095AD23E55
:1007A0009165693FCA7BCF3EA7096A3F8B9BCC3ED0
:1007B0007BAB6A3F53B9C93E0C4B6B3F29D5C63E54
:1007C00058E86B3F15EFC33E5E836C3F1E07C13E8A
:1007D0001D1C6D3F4A1DBE3E93B26D3FA031BB3E16
:1007E000BE466E3F2A44B83E9ED86E3FEC54B53E9E
:1007F00030686F3FEF63B23E73F56F3F3A71AF3EC3
:100800006680703FD47CAC3E0809713FC486A93E27
:10081000578F713F128FA63E5213723FC595A33E6C
:10082000F894723FE59AA03E4714733F789E9D3E30
:100830003F91733F86A09A3EDD0B743F17A1973E10
:100840002284743F31A0943E0BFA743FDD9D913EAB
:10085000976D753F229A8E3EC6DE753F07958B3E9B
:10086000974D763F938E883E07BA763FCE86853E7B
:100870001724773FC07D823EC58B773FE1E67E3E01
:1008800010F1773FCCCF783EF853783F51B6723EA7
:100890007BB4783F7F9A6C3E9812793F667C663EC7
:1008A0004E6E793F135C603E9DC7793F97395A3E43
:1008B000841E7A3F0115543E02737A3F60EE4D3E2E
:1008C00016C57A3FC2C5473EBE147B3F379B413EAB
:1008D000FC617B3FCF6E3B3ECDAC7B3F9840353ECD
:1008E00031F57B3FA2102F3E283B7C3FFCDE283EAB
:1008F000B07E7C3FB6AB223EC9BF7C3FDE761C3E5D
:1009000073FE7C3F8340163EAC3A7D3FB708103EF5
:1009100074747D3F86CF093ECCAB7D3F0295033E8C
:10092000B1E07D3F73B2FA3D24137E3F7638EE3D51
:1009300023437E3F2EBCE13DB0707E3FB93DD53DA7
:10094000C99B7E3F36BDC83D6DC47E3FC33ABC3DAA
:100950009DEA7E3F80B6AF3D580E7F3F8C30A33D71
:100960009D2F7F3F05A9963D6D4E7F3F0A208A3D12
:10097000C76A7F3F742B7B3DAB847F3F6814623D29
:10098000189C7F3F2FFB483D0FB17F3F07E02F3D75
:100990008FC37F3F2CC3163D98D37F3FB949FB3CA3
:1009A00029E17F3FB00AC93C43EC7F3FB6C9963C82
:1009B000E6F47F3F900E493C11FB7F3F890FC93B16
:1009C000C4FE7F3F000000000000803F890FC9BBCC
:1009D000C4FE7F3F900E49BC11FB7F3FB6C996BC59
:1009E000E6F47F3FB00AC9BC43EC7F3FB949FBBC8A
:1009F00029E17F3F2CC316BD98D37F3F07E02FBD71
:100A00008FC37F3F2FFB48BD0FB17F3F681462BD8E
:100A1000189C7F3F742B7BBDAB847F3F0A208ABD2F
:100A2000C76A7F3F05A996BD6D4E7F3F8C30A3BD41
:100A30009D2F7F3F80B6AFBD580E7F3FC33ABCBDF0
:100A40009DEA7E3F36BDC8BD6DC47E3FB93DD5BD74
:100A5000C99B7E3F2EBCE1BDB0707E3F7638EEBDB7
:100A600023437E3F73B2FABD24137E3F029503BE3B
:100A7000B1E07D3F86CF09BECCAB7D3FB70810BE4D
:100A800074747D3F834016BEAC3A7D3FDE761CBE5B
:100A900073FE7C3FB6AB22BEC9BF7C3FFCDE28BEE6
:100AA000B07E7C3FA2102FBE283B7C3F984035BED5
:100AB00031F57B3FCF6E3BBECDAC7B3F379B41BE1C
:100AC000FC617B3FC2C547BEBE147B3F60EE4DBE9E
:100AD00016C57A3F011554BE02737A3F97395ABE44
:100AE000841E7A3F135C60BE9DC7793F667C66BEFC
:100AF0004E6E793F7F9A6CBE9812793F51B672BEA6
:100B00007BB4783FCCCF78BEF853783FE1E67EBE29
:100B100010F1773FC07D82BEC58B773FCE8685BE04
:100B20001724773F938E88BE07BA763F07958BBE12
:100B3000974D763F229A8EBEC6DE753FDD9D91BEF3
:100B4000976D753F31A094BE0BFA743F17A197BE05
:100B50002284743F86A09ABEDD0B743F789E9DBEB2
:100B60003F91733FE59AA0BE4714733FC595A3BE5E
:100B7000F894723F128FA6BE5213723FC486A9BE6C
:100B8000578F713FD47CACBE0809713F3A71AFBE3C
:100B90006680703FEF63B2BE73F56F3FEC54B5BE35
:100BA00030686F3F2A44B8BE9ED86E3FA031BBBEAE
:100BB000BE466E3F4A1DBEBE93B26D3F1E07C1BE0C
:100BC0001D1C6D3F15EFC3BE5E836C3F29D5C6BEAD
:100BD00058E86B3F53B9C9BE0C4B6B3F8B9BCCBEE7
:100BE0007BAB6A3FCA7BCFBEA7096A3F095AD2BE18
:100BF0009165693F4136D5BE3CBF683F6B10D8BE9A
:100C0000A816683F80E8DABED86B673F79BEDDBEC4
:100C1000CCBE663F4F92E0BE880F663FFA63E3BEEC
:100C20000B5E653F7533E6BE59AA643FB700E9BE67
:100C300073F4633FBBCBEBBE5A3C633F7994EEBE8B
:100C40001082623FEA5AF1BE98C5613F071FF4BEA9
:100C5000F206613FCBE0F6BE2146603F2DA0F9BE13
:100C600027835F3F275DFCBE05BE5E3FB217FFBE18
:100C7000BEF65D3FE4E700BF532D5D3FB14202BFCA
:100C8000C7615C3F3D9C03BF1A945B3F84F404BF83
:100C900050C45A3F824B06BF6AF2593F36A107BF84
:100CA0006A1E593F9BF508BF5348583FAD480ABFDD
:100CB0002670573F6B9A0BBFE595563FD0EA0CBFA5
:100CC00093B9553FDA390EBF31DB543F84870FBFEC
:100CD000C3FA533FCDD310BF4918533FB01E12BFC4
:100CE000C633523F2A6813BF3D4D513F39B014BF40
:100CF000AF64503FD9F615BF1F7A4F3F073C17BF6F
:100D0000908D4E3FC07F18BF029F4D3F00C219BF5C
:100D100079AE4C3FC6021BBFF8BB4B3F0C421CBF19
:100D20007FC74A3FD17F1DBF12D1493F12BC1EBFB2
:100D3000B3D8483FCBF61FBF65DE473FF92F21BF31
:100D40002AE2463F996722BF03E4453FA99D23BF9E
:100D5000F5E3443F25D224BF00E2433F0A0526BF06
:100D600029DE423F563627BF70D8413F056628BF6F
:100D7000DAD0403F159429BF67C73F3F82C02ABFE2
:100D80001BBC3E3F4AEB2BBFF9AE3D3F69142DBF64
:100D900003A03C3FDE3B2EBF3B8F3B3FA5612FBFF7
:100DA000A47C3A3FBB8530BF4268393F1DA831BFA4
:100DB0001652383FC9C832BF233A373FBCE733BF6A
:100DC0006C20363FF30435BFF304353F6C2036BF4B
:100DD000BCE7333F233A37BFC9C8323F165238BF4A
:100DE0001DA8313F426839BFBB85303FA47C3ABF64
:100DF000A5612F3F3B8F3BBFDE3B2E3F03A03CBF97
:100E000069142D3FF9AE3DBF4AEB2B3F1BBC3EBFE3
:100E100082C02A3F67C73FBF1594293FDAD040BF41
:100E20000566283F70D841BF5636273F29DE42BFAE
:100E30000A05263F00E243BF25D2243FF5E344BF25
:100E4000A99D233F03E445BF9967223F2AE246BF9D
:100E5000F92F213F65DE47BFCBF61F3FB3D848BF10
:100E600012BC1E3F12D149BFD17F1D3F7FC74ABF71
:100E70000C421C3FF8BB4BBFC6021B3F79AE4CBFB8
:100E800000C2193F029F4DBFC07F183F908D4EBFDB
:100E9000073C173F1F7A4FBFD9F6153FAF6450BFCD
:100EA00039B0143F3D4D51BF2A68133FC63352BF7E
:100EB000B01E123F491853BFCDD3103FC3FA53BFE2
:100EC00084870F3F31DB54BFDA390E3F93B955BFEA
:100ED000D0EA0C3FE59556BF6B9A0B3F267057BF83
:100EE000AD480A3F534858BF9BF5083F6A1E59BF9B
:100EF00036A1073F6AF259BF824B063F50C45ABF22
:100F000084F4043F1A945BBF3D9C033FC7615CBF00
:100F1000B142023F532D5DBFE4E7003FBEF65DBF27
:100F2000B217FF3E05BE5EBF275DFC3E27835FBF55
:100F30002DA0F93E214660BFCBE0F63EF20661BF30
:100F4000071FF43E98C561BFEA5AF13E108262BFA6
:100F50007994EE3E5A3C63BFBBCBEB3E73F463BF68
:100F6000B700E93E59AA64BF7533E63E0B5E65BF24
:100F7000FA63E33E880F66BF4F92E03ECCBE66BF89
:100F800079BEDD3ED86B67BF80E8DA3EA81668BF41
:100F90006B10D83E3CBF68BF4136D53E916569BFF6
:100FA000095AD23EA7096ABFCA7BCF3E7BAB6ABF54
:100FB0008B9BCC3E0C4B6BBF53B9C93E58E86BBF03
:100FC00029D5C63E5E836CBF15EFC33E1D1C6DBFA9
:100FD0001E07C13E93B26DBF4A1DBE3EBE466EBFE8
:100FE000A031BB3E9ED86EBF2A44B83E30686FBF6A
:100FF000EC54B53E73F56FBFEF63B23E668070BFD1
:101000003A71AF3E080971BFD47CAC3E578F71BFB7
:10101000C486A93E521372BF128FA63EF89472BFC7
:10102000C595A33E471473BFE59AA03E3F9173BF99
:10103000789E9D3EDD0B74BF86A09A3E228474BFCD
:1010400017A1973E0BFA74BF31A0943E976D75BF00
:10105000DD9D913EC6DE75BF229A8E3E974D76BFCE
:1010600007958B3E07BA76BF938E883E172477BFCD
:10107000CE86853EC58B77BFC07D823E10F177BF9F
:10108000E1E67E3EF85378BFCCCF783E7BB478BFA4
:1010900051B6723E981279BF7F9A6C3E4E6E79BF00
:1010A000667C663E9DC779BF135C603E841E7ABF36
:1010B00097395A3E02737ABF0115543E16C57ABF5E
:1010C00060EE4D3EBE147BBFC2C5473EFC617BBF98
:1010D000379B413ECDAC7BBFCF6E3B3E31F57BBFF6
:1010E0009840353E283B7CBFA2102F3EB07E7CBF8F
:1010F000FCDE283EC9BF7CBFB6AB223E73FE7CBF80
:10110000DE761C3EAC3A7DBF8340163E74747DBFD4
:10111000B708103ECCAB7DBF86CF093EB1E07DBFA6
:101120000295033E24137EBF73B2FA3D23437EBF74
:101130007638EE3DB0707EBF2EBCE13DC99B7EBFD0
:10114000B93DD53D6DC47EBF36BDC83D9DEA7EBF6D
:10115000C33ABC3D580E7FBF80B6AF3D9D2F7FBFC9
:101160008C30A33D6D4E7FBF05A9963DC76A7FBFFA
:101170000A208A3DAB847FBF742B7B3D189C7FBFC8
:101180006814623D0FB17FBF2FFB483D8FC37FBF07
:1011900007E02F3D98D37FBF2CC3163D29E17FBFC9
:1011A000B949FB3C43EC7FBFB00AC93CE6F47FBFC2
:1011B000B6C9963C11FB7FBF900E493CC4FE7FBF71
:1011C000890FC93B000080BF00000000C4FE7FBF44
:1011D000890FC9BB11FB7FBF900E49BCE6F47FBFEE
:1011E000B6C996BC43EC7FBFB00AC9BC29E17FBF3A
:1011F000B949FBBC98D37FBF2CC316BD8FC37FBF3B
:1012000007E02FBD0FB17FBF2FFB48BD189C7FBFEC
:10121000681462BDAB847FBF742B7BBDC76A7FBF80
:101220000A208ABD6D4E7FBF05A996BD9D2F7FBF49
:101230008C30A3BD580E7FBF80B6AFBD9DEA7EBF88
:10124000C33ABCBD6DC47EBF36BDC8BDC99B7EBFA1
:10125000B93DD5BDB0707EBF2EBCE1BD23437EBF7E
:101260007638EEBD24137EBF73B2FABDB1E07DBF08
:10127000029503BECCAB7DBF86CF09BE74747DBF23
:10128000B70810BEAC3A7DBF834016BE73FE7CBF6C
:10129000DE761CBEC9BF7CBFB6AB22BEB07E7CBFB3
:1012A000FCDE28BE283B7CBFA2102FBE31F57BBFE1
:1012B000984035BECDAC7BBFCF6E3BBEFC617BBFE3
:1012C000379B41BEBE147BBFC2C547BE16C57ABFA1
:1012D00060EE4DBE02737ABF011554BE841E7ABF04
:1012E00097395ABE9DC779BF135C60BE4E6E79BFF9
:1012F000667C66BE981279BF7F9A6CBE7BB478BF5D
:1013000051B672BEF85378BFCCCF78BE10F177BF1C
:10131000E1E67EBEC58B77BFC07D82BE172477BF56
:10132000CE8685BE07BA76BF938E88BE974D76BFB0
:1013300007958BBEC6DE75BF229A8EBE976D75BFB0
:10134000DD9D91BE0BFA74BF31A094BE228474BFA0
:1013500017A197BEDD0B74BF86A09ABE3F9173BFE5
:10136000789E9DBE471473BFE59AA0BEF89472BFE5
:10137000C595A3BE521372BF128FA6BE578F71BF01
:10138000C486A9BE080971BFD47CACBE668070BF9C
:101390003A71AFBE73F56FBFEF63B2BE30686FBF17
:1013A000EC54B5BE9ED86EBF2A44B8BEBE466EBFD2
:1013B000A031BBBE93B26DBF4A1DBEBE1D1C6DBF2A
:1013C0001E07C1BE5E836CBF15EFC3BE58E86BBF7E
:1013D00029D5C6BE0C4B6BBF53B9C9BE7BAB6ABF28
:1013E0008B9BCCBEA7096ABFCA7BCFBE916569BF84
:1013F000095AD2BE3CBF68BF4136D5BEA81668BFE9
:101400006B10D8BED86B67BF80E8DABECCBE66BFB3
:1014100079BEDDBE880F66BF4F92E0BE0B5E65BF32
:10142000FA63E3BE59AA64BF7533E6BE73F463BFC3
:10143000B700E9BE5A3C63BFBBCBEBBE108262BFB4
:101440007994EEBE98C561BFEA5AF1BEF20661BF5B
:10145000071FF4BE214660BFCBE0F6BE27835FBF07
:101460002DA0F9BE05BE5EBF275DFCBEBEF65DBF0A
:10147000B217FFBE532D5DBFE4E700BFC7615CBF7D
:10148000B14202BF1A945BBF3D9C03BF50C45ABF18
:1014900084F404BF6AF259BF824B06BF6A1E59BF6B
:1014A00036A107BF534858BF9BF508BF267057BFEA
:1014B000AD480ABFE59556BF6B9A0BBF93B955BFB0
:1014C000D0EA0CBF31DB54BFDA390EBFC3FA53BFC9
:1014D00084870FBF491853BFCDD310BFC63352BF47
:1014E000B01E12BF3D4D51BF2A6813BFAF6450BF3D
:1014F00039B014BF1F7A4FBFD9F615BF908D4EBFBC
:10150000073C17BF029F4DBFC07F18BF79AE4CBFCD
:1015100000C219BFF8BB4BBFC6021BBF7FC74ABF83
:101520000C421CBF12D149BFD17F1DBFB3D848BFE9
:1015300012BC1EBF65DE47BFCBF61FBF2AE246BF07
:10154000F92F21BF03E445BF996722BFF5E344BFEC
:10155000A99D23BF00E243BF25D224BF29DE42BF9D
:101560000A0526BF70D841BF563627BFDAD040BF24
:10157000056628BF67C73FBF159429BF1BBC3EBF88
:1015800082C02ABFF9AE3DBF4AEB2BBF03A03CBFD0
:1015900069142DBF3B8F3BBFDE3B2EBFA47C3ABFFF
:1015A000A5612FBF426839BFBB8530BF165238BF17
:1015B0001DA831BF233A37BFC9C832BF6C2036BF20
:1015C000BCE733BFF30435BFF30435BFBCE733BF1B
:1015D0006C2036BFC9C832BF233A37BF1DA831BF00
:1015E000165238BFBB8530BF426839BFA5612FBFD7
:1015F000A47C3ABFDE3B2EBF3B8F3BBF69142DBF9F
:1016000003A03CBF4AEB2BBFF9AE3DBF82C02ABF4F
:101610001BBC3EBF159429BF67C73FBF056628BFE7
:10162000DAD040BF563627BF70D841BF0A0526BF63
:1016300029DE42BF25D224BF00E243BFA99D23BFBC
:10164000F5E344BF996722BF03E445BFF92F21BFEB
:101650002AE246BFCBF61FBF65DE47BF12BC1EBFE6
:10166000B3D848BFD17F1DBF12D149BF0C421CBFA8
:101670007FC74ABFC6021BBFF8BB4BBF00C219BF22
:1016800079AE4CBFC07F18BF029F4DBF073C17BF4C
:10169000908D4EBFD9F615BF1F7A4FBF39B014BF1A
:1016A000AF6450BF2A6813BF3D4D51BFB01E12BF7B
:1016B000C63352BFCDD310BF491853BF84870FBF65
:1016C000C3FA53BFDA390EBF31DB54BFD0EA0CBFC7
:1016D00093B955BF6B9A0BBFE59556BFAD480ABF8E
:1016E000267057BF9BF508BF534858BF36A107BFA8
:1016F0006A1E59BF824B06BF6AF259BF84F404BF09
:1017000050C45ABF3D9C03BF1A945BBFB14202BF95
:10171000C7615CBFE4E700BF532D5DBFB217FFBEDA
:10172000BEF65DBF275DFCBE05BE5EBF2DA0F9BE47
:1017300027835FBFCBE0F6BE214660BF071FF4BE24
:10174000F20661BFEA5AF1BE98C561BF7994EEBE58
:10175000108262BFBBCBEBBE5A3C63BFB700E9BE91
:1017600073F463BF7533E6BE59AA64BFFA63E3BE80
:101770000B5E65BF4F92E0BE880F66BF79BEDDBECF
:10178000CCBE66BF80E8DABED86B67BF6B10D8BE30
:10179000A81668BF4136D5BE3CBF68BF095AD2BE45
:1017A000916569BFCA7BCFBEA7096ABF8B9BCCBEC0
:1017B0007BAB6ABF53B9C9BE0C4B6BBF29D5C6BE44
:1017C00058E86BBF15EFC3BE5E836CBF1E07C1BE7A
:1017D0001D1C6DBF4A1DBEBE93B26DBFA031BBBE06
:1017E000BE466EBF2A44B8BE9ED86EBFEC54B5BE8E
:1017F00030686FBFEF63B2BE73F56FBF3A71AFBEB3
:10180000668070BFD47CACBE080971BFC486A9BE17
:10181000578F71BF128FA6BE521372BFC595A3BE5C
:10182000F89472BFE59AA0BE471473BF789E9DBE20
:101830003F9173BF86A09ABEDD0B74BF17A197BE00
:10184000228474BF31A094BE0BFA74BFDD9D91BE9B
:10185000976D75BF229A8EBEC6DE75BF07958BBE8B
:10186000974D76BF938E88BE07BA76BFCE8685BE6B
:10187000172477BFC07D82BEC58B77BFE1E67EBEF1
:1018800010F177BFCCCF78BEF85378BF51B672BE97
:101890007BB478BF7F9A6CBE981279BF667C66BEB7
:1018A0004E6E79BF135C60BE9DC779BF97395ABE33
:1018B000841E7ABF011554BE02737ABF60EE4DBE1E
:1018C00016C57ABFC2C547BEBE147BBF379B41BE9B
:1018D000FC617BBFCF6E3BBECDAC7BBF984035BEBD
:1018E00031F57BBFA2102FBE283B7CBFFCDE28BE9B
:1018F000B07E7CBFB6AB22BEC9BF7CBFDE761CBE4D
:1019000073FE7CBF834016BEAC3A7DBFB70810BEE5
:1019100074747DBF86CF09BECCAB7DBF029503BE7C
:10192000B1E07DBF73B2FABD24137EBF7638EEBD41
:1019300023437EBF2EBCE1BDB0707EBFB93DD5BD97
:10194000C99B7EBF36BDC8BD6DC47EBFC33ABCBD9A
:101950009DEA7EBF80B6AFBD580E7FBF8C30A3BD61
:101960009D2F7FBF05A996BD6D4E7FBF0A208ABD02
:10197000C76A7FBF742B7BBDAB847FBF681462BD19
:10198000189C7FBF2FFB48BD0FB17FBF07E02FBD65
:101990008FC37FBF2CC316BD98D37FBFB949FBBC93
:1019A00029E17FBFB00AC9BC43EC7FBFB6C996BC72
:1019B000E6F47FBF900E49BC11FB7FBF890FC9BB06
:1019C000C4FE7FBF00000080000080BF890FC93BBC
:1019D000C4FE7FBF900E493C11FB7FBFB6C9963C49
:1019E000E6F47FBFB00AC93C43EC7FBFB949FB3C7A
:1019F00029E17FBF2CC3163D98D37FBF07E02F3D61
:101A00008FC37FBF2FFB483D0FB17FBF6814623D7E
:101A1000189C7FBF742B7B3DAB847FBF0A208A3D1F
:101A2000C76A7FBF05A9963D6D4E7FBF8C30A33D31
:101A30009D2F7FBF80B6AF3D580E7FBFC33ABC3DE0
:101A40009DEA7EBF36BDC83D6DC47EBFB93DD53D64
:101A5000C99B7EBF2EBCE13DB0707EBF7638EE3DA7
:101A600023437EBF73B2FA3D24137EBF0295033E2B
:101A7000B1E07DBF86CF093ECCAB7DBFB708103E3D
:101A800074747DBF8340163EAC3A7DBFDE761C3E4B
:101A900073FE7CBFB6AB223EC9BF7CBFFCDE283ED6
:101AA000B07E7CBFA2102F3E283B7CBF9840353EC5
:101AB00031F57BBFCF6E3B3ECDAC7BBF379B413E0C
:101AC000FC617BBFC2C5473EBE147BBF60EE4D3E8E
:101AD00016C57ABF0115543E02737ABF97395A3E34
:101AE000841E7ABF135C603E9DC779BF667C663EEC
:101AF0004E6E79BF7F9A6C3E981279BF51B6723E96
:101B00007BB478BFCCCF783EF85378BFE1E67E3E19
:101B100010F177BFC07D823EC58B77BFCE86853EF4
:101B2000172477BF938E883E07BA76BF07958B3E02
:101B3000974D76BF229A8E3EC6DE75BFDD9D913EE3
:101B4000976D75BF31A0943E0BFA74BF17A1973EF5
:101B5000228474BF86A09A3EDD0B74BF789E9D3EA2
:101B60003F9173BFE59AA03E471473BFC595A33E4E
:101B7000F89472BF128FA63E521372BFC486A93E5C
:101B8000578F71BFD47CAC3E080971BF3A71AF3E2C
:101B9000668070BFEF63B23E73F56FBFEC54B53E25
:101BA00030686FBF2A44B83E9ED86EBFA031BB3E9E
:101BB000BE466EBF4A1DBE3E93B26DBF1E07C13EFC
:101BC0001D1C6DBF15EFC33E5E836CBF29D5C63E9D
:101BD00058E86BBF53B9C93E0C4B6BBF8B9BCC3ED7
:101BE0007BAB6ABFCA7BCF3EA7096ABF095AD23E08
:101BF000916569BF4136D53E3CBF68BF6B10D83E8A
:101C0000A81668BF80E8DA3ED86B67BF79BEDD3EB4
:101C1000CCBE66BF4F92E03E880F66BFFA63E33EDC
:101C20000B5E65BF7533E63E59AA64BFB700E93E57
:101C300073F463BFBBCBEB3E5A3C63BF7994EE3E7B
:101C4000108262BFEA5AF13E98C561BF071FF43E99
:101C5000F20661BFCBE0F63E214660BF2DA0F93E03
:101C600027835FBF275DFC3E05BE5EBFB217FF3E08
:101C7000BEF65DBFE4E7003F532D5DBFB142023FBA
:101C8000C7615CBF3D9C033F1A945BBF84F4043F73
:101C900050C45ABF824B063F6AF259BF36A1073F74
:101CA0006A1E59BF9BF5083F534858BFAD480A3FCD
:101CB000267057BF6B9A0B3FE59556BFD0EA0C3F95
:101CC00093B955BFDA390E3F31DB54BF84870F3FDC
:101CD000C3FA53BFCDD3103F491853BFB01E123FB4
:101CE000C63352BF2A68133F3D4D51BF39B0143F30
:101CF000AF6450BFD9F6153F1F7A4FBF073C173F5F
:101D0000908D4EBFC07F183F029F4DBF00C2193F4C
:101D100079AE4CBFC6021B3FF8BB4BBF0C421C3F09
:101D20007FC74ABFD17F1D3F12D149BF12BC1E3FA2
:101D3000B3D848BFCBF61F3F65DE47BFF92F213F21
:101D40002AE246BF9967223F03E445BFA99D233F8E
:101D5000F5E344BF25D2243F00E243BF0A05263FF6
:101D600029DE42BF5636273F70D841BF0566283F5F
:101D7000DAD040BF1594293F67C73FBF82C02A3FD2
:101D80001BBC3EBF4AEB2B3FF9AE3DBF69142D3F54
:101D900003A03CBFDE3B2E3F3B8F3BBFA5612F3FE7
:101DA000A47C3ABFBB85303F426839BF1DA8313F94
:101DB000165238BFC9C8323F233A37BFBCE7333F5A
:101DC0006C2036BFF304353FF30435BF6C20363F3B
:101DD000BCE733BF233A373FC9C832BF1652383F3A
:101DE0001DA831BF4268393FBB8530BFA47C3A3F54
:101DF000A5612FBF3B8F3B3FDE3B2EBF03A03C3F87
:101E000069142DBFF9AE3D3F4AEB2BBF1BBC3E3FD3
:101E100082C02ABF67C73F3F159429BFDAD0403F31
:101E2000056628BF70D8413F563627BF29DE423F9E
:101E30000A0526BF00E2433F25D224BFF5E3443F15
:101E4000A99D23BF03E4453F996722BF2AE2463F8D
:101E5000F92F21BF65DE473FCBF61FBFB3D8483F00
:101E600012BC1EBF12D1493FD17F1DBF7FC74A3F61
:101E70000C421CBFF8BB4B3FC6021BBF79AE4C3FA8
:101E800000C219BF029F4D3FC07F18BF908D4E3FCB
:101E9000073C17BF1F7A4F3FD9F615BFAF64503FBD
:101EA00039B014BF3D4D513F2A6813BFC633523F6E
:101EB000B01E12BF4918533FCDD310BFC3FA533FD2
:101EC00084870FBF31DB543FDA390EBF93B9553FDA
:101ED000D0EA0CBFE595563F6B9A0BBF2670573F73
:101EE000AD480ABF5348583F9BF508BF6A1E593F8B
:101EF00036A107BF6AF2593F824B06BF50C45A3F12
:101F000084F404BF1A945B3F3D9C03BFC7615C3FF0
:101F1000B14202BF532D5D3FE4E700BFBEF65D3F17
:101F2000B217FFBE05BE5E3F275DFCBE27835F3F45
:101F30002DA0F9BE2146603FCBE0F6BEF206613F20
:101F4000071FF4BE98C5613FEA5AF1BE1082623F96
:101F50007994EEBE5A3C633FBBCBEBBE73F4633F58
:101F6000B700E9BE59AA643F7533E6BE0B5E653F14
:101F7000FA63E3BE880F663F4F92E0BECCBE663F79
:101F800079BEDDBED86B673F80E8DABEA816683F31
:101F90006B10D8BE3CBF683F4136D5BE9165693FE6
:101FA000095AD2BEA7096A3FCA7BCFBE7BAB6A3F44
:101FB0008B9BCCBE0C4B6B3F53B9C9BE58E86B3FF3
:101FC00029D5C6BE5E836C3F15EFC3BE1D1C6D3F99
:101FD0001E07C1BE93B26D3F4A1DBEBEBE466E3FD8
:101FE000A031BBBE9ED86E3F2A44B8BE30686F3F5A
:101FF000EC54B5BE73F56F3FEF63B2BE6680703FC1
:102000003A71AFBE0809713FD47CACBE578F713FA7
:10201000C486A9BE5213723F128FA6BEF894723FB7
:10202000C595A3BE4714733FE59AA0BE3F91733F89
:10203000789E9DBEDD0B743F86A09ABE2284743FBD
:1020400017A197BE0BFA743F31A094BE976D753FF0
:10205000DD9D91BEC6DE753F229A8EBE974D763FBE
:1020600007958BBE07BA763F938E88BE1724773FBD
:10207000CE8685BEC58B773FC07D82BE10F1773F8F
:10208000E1E67EBEF853783FCCCF78BE7BB4783F94
:1020900051B672BE9812793F7F9A6CBE4E6E793FF0
:1020A000667C66BE9DC7793F135C60BE841E7A3F26
:1020B00097395ABE02737A3F011554BE16C57A3F4E
:1020C00060EE4DBEBE147B3FC2C547BEFC617B3F88
:1020D000379B41BECDAC7B3FCF6E3BBE31F57B3FE6
:1020E000984035BE283B7C3FA2102FBEB07E7C3F7F
:1020F000FCDE28BEC9BF7C3FB6AB22BE73FE7C3F70
:10210000DE761CBEAC3A7D3F834016BE74747D3FC4
:10211000B70810BECCAB7D3F86CF09BEB1E07D3F96
:10212000029503BE24137E3F73B2FABD23437E3F64
:102130007638EEBDB0707E3F2EBCE1BDC99B7E3FC0
:10214000B93DD5BD6DC47E3F36BDC8BD9DEA7E3F5D
:10215000C33ABCBD580E7F3F80B6AFBD9D2F7F3FB9
:102160008C30A3BD6D4E7F3F05A996BDC76A7F3FEA
:102170000A208ABDAB847F3F742B7BBD189C7F3FB8
:10218000681462BD0FB17F3F2FFB48BD8FC37F3FF7
:1021900007E02FBD98D37F3F2CC316BD29E17F3FB9
:1021A000B949FBBC43EC7F3FB00AC9BCE6F47F3FB2
:1021B000B6C996BC11FB7F3F900E49BCC4FE7F3F61
:1021C000890FC9BB0800001010000002180000129F
:1021D000200000042800001430000006380000161B
:1021E00040000008480000185000000A5800001A7B
:1021F0006000000C6800001C7000000E7800001EDB
:1022000080000008880040109000400298004012B2
:10221000A0004004A8004014B0004006B8004016DA
:10222000C0004008C8004018D000400AD800401A3A
:10223000E000400CE800401CF000400EF800401E9A
:1022400000010008080180101001800218018012AE
:102250002001800428018014300180063801801696
:1022600040018008480180185001800A5801801AF6
:102270006001800C6801801C7001800E7801801E56
:10228000800140088801C0109001C0029801C0126E
:10229000A001C004A801C014B001C006B801C01656
:1022A000C001C008C801C018D001C00AD801C01AB6
:1022B000E001C00CE801C01CF001C00EF801C01E16
:1022C00000020008080200111002000318020013A7
:1022D000200200052802001530020007380200170E
:1022E00040020009480200195002000B5802001B6E
:1022F0006002000D6802001D7002000F7802001FCE
:102300008002800888024011900240039802401326
:10231000A0024005A8024015B0024007B8024017CD
:10232000C0024009C8024019D002400BD802401B2D
:10233000E002400DE802401DF002400FF802401F8D
:102340000003400808038011100380031803801362
:102350002003800528038015300380073803801789
:1023600040038009480380195003800B5803801BE9
:102370006003800D6803801D7003800F7803801F49
:102380008003C0088803C0119003C0039803C013E2
:10239000A003C005A803C015B003C007B803C01749
:1023A000C003C009C803C019D003C00BD803C01BA9
:1023B000E003C00DE803C01DF003C00FF803C01F09
:1023C000000400100804081010040011180408127A
:1023D00020040810280408143004080638040816DD
:1023E00040040808480408185004080A5804081A49
:1023F0006004080C6804081C7004080E7804081EA9
:1024000080040018880448109004001998044812A9
:10241000A0040818A8044814B0044806B8044816D4
:10242000C0044808C8044818D004480AD804481A08
:10243000E004480CE804481CF004480EF804481E68
:102440000005401008058810100540111805881275
:102450002005481028058814300588063805881698
:1024600040058808480588185005880A5805881AC4
:102470006005880C6805881C7005880E7805881E24
:10248000800540188805C810900540199805C812A5
:10249000A0054818A805C814B005C806B805C81690
:1024A000C005C808C805C818D005C80AD805C81A84
:1024B000E005C80CE805C81CF005C80EF805C81EE4
:1024C000000680100806081110068011180608136F
:1024D0002006881028060815300608073806081751
:1024E00040060809480608195006080B5806081B3C
:1024F0006006080D6806081D7006080F7806081F9C
:10250000800680188806481190068019980648139E
:10251000A0068818A8064815B0064807B806481748
:10252000C0064809C8064819D006480BD806481BFB
:10253000E006480DE806481DF006480FF806481F5B
:102540000007C010080788111007C011180788136A
:102550002007C8102807881530078807380788170C
:1025600040078809480788195007880B5807881BB7
:102570006007880D6807881D7007880F7807881F17
:102580008007C0188807C8119007C0199807C8139A
:10259000A007C818A807C815B007C807B807C81704
:1025A000C007C809C807C819D007C80BD807C81B77
:1025B000E007C80DE807C81DF007C80FF807C81FD7
:1025C0000808101010084008180810122008001100
:1025D0002808101430088011380810164808101800
:1025E0005008100A5808101A6008100C6808101CCF
:1025F0007008100E7808101E8008000A8808501015
:102600009008000B98085012A008080AA808501457
:10261000B008080BB8085016C008100AC8085018AF
:10262000D008500AD808501AE008500CE808501C8E
:10263000F008500EF808501E080990101009800983
:1026400018099012200900192809901430098019DE
:10265000380990164009000B480990185009900A53
:102660005809901A6009900C6809901C7009900E26
:102670007809901E8009400A8809D0109009400B03
:102680009809D012A009480AA809D014B009480B2B
:10269000B809D016C009500AC809D018D009D00A04
:1026A000D809D01AE009D00CE809D01CF009D00EE6
:1026B000F809D01E080A1011180A1013200A401138
:1026C000280A1015300AC011380A1017480A1019C4
:1026D000500A100B580A101B600A100D680A101DD2
:1026E000700A100F780A101F880A5011900A800B88
:1026F000980A5013A00A5011A80A5015B00A880B66
:10270000B80A5017C00A800BC80A5019D00A500BDB
:10271000D80A501BE00A500DE80A501DF00A500F6D
:10272000F80A501F080B9011180B9013200B40193A
:10273000280B9015300BC019380B9017480B9019C7
:10274000500B900B580B901B600B900D680B901D5D
:10275000700B900F780B901F880BD011900BC00B53
:10276000980BD013A00B5019A80BD015B00BC80BA9
:10277000B80BD017C80BD019D80BD01BE00BD00D5D
:10278000E80BD01DF00BD00FF80BD01F000C00127F
:10279000080C1810100C0013180C1812200C08123A
:1027A000280C1814300C0813380C1816400C101292
:1027B000480C1818500C1013580C181A600C1812EA
:1027C000680C181C700C180E780C181E800C001A5F
:1027D000880C5810900C001B980C5812A00C081A6A
:1027E000A80C5814B00C081BB80C5816C00C101AC2
:1027F000C80C5818D00C101BD80C581AE00C181A1A
:10280000E80C581CF00C580EF80C581E000D401225
:10281000080D9810100D4013180D9812200D481235
:10282000280D9814300D4813380D9816400D50128D
:10283000480D9818500D5013580D981A600D5812E5
:10284000680D981C700D980E780D981E800D401A1A
:10285000880DD810900D401B980DD812A00D481A65
:10286000A80DD814B00D481BB80DD816C00D501ABD
:10287000C80DD818D00D501BD80DD81AE00D581A15
:10288000E80DD81CF00DD80EF80DD81E000E8012E1
:10289000080E1811100E8013180E1813200E88122F
:1028A000280E1815300E8813380E1817400E901287
:1028B000480E1819500E9013580E181B600E9812DF
:1028C000680E181D700E180F780E181F800E801AD3
:1028D000880E5811900E801B980E5813A00E881A5F
:1028E000A80E5815B00E881BB80E5817C00E901AB7
:1028F000C80E5819D00E901BD80E581BE00E981A0F
:10290000E80E581DF00E580FF80E581F000FC01299
:10291000080F9811100FC013180F9813200FC8122A
:10292000280F9815300FC813380F9817400FD01282
:10293000480F9819500FD013580F981B600FD812DA
:10294000680F981D700F980F780F981F800FC01A8E
:10295000880FD811900FC01B980FD813A00FC81A5A
:10296000A80FD815B00FC81BB80FD817C00FD01AB2
:10297000C80FD819D00FD01BD80FD81BE00FD81A0A
:10298000E80FD81DF00FD81BF80FD81F0810201023
:102990001010401018102012281020143010881029
:1029A0003810201640100011481020185010401107
:1029B0005810201A601008126810201C701088121D
:1029C0007810201E801000128810081290104012FB
:1029D00098106012A0102012A8106014B01060129D
:1029E000B8106016C0100013C8106018D010401343
:1029F000D810601AE0101812E810601CF01098123D
:102A0000F810601E08112012101140111811A012A8
:102A1000201108182811A014301188183811A01698
:102A20004811A0185811A01A6011081A6811A01CAA
:102A30007011881A7811A01E8011101288111812B6
:102A4000901150129811E012A0111818A811E0145A
:102A5000B0119818B811E016C0111013C811E01881
:102A6000D0115013D811E01AE011181AE811E01C27
:102A7000F011981AF811E01E001200180812081838
:102A80001012401818122013201220182812201596
:102A900030126018381220174012001948122019FD
:102AA000501240195812201B601220196812201D64
:102AB0007012C8127812201F8012001A8812081A89
:102AC0009012401A98126013A012201AA8126015D2
:102AD000B012601AB8126017C012001BC812601939
:102AE000D012401BD812601BE012201BE812601DA0
:102AF000F012601BF812601F00131018081318184A
:102B0000101350181813A013201348182813A015D9
:102B10003013C8183813A017401310194813A01900
:102B2000501350195813A01B6013481A6813A01DA6
:102B30007013C81A7813A01F8013101A8813181A5C
:102B40009013501A9813E013A0135818A813E01507
:102B5000B013D818B813E017C013101BC813E0192E
:102B6000D013501BD813E01BE013581AE813E01DD4
:102B7000F013D81AF813E01F0814201410140015CD
:102B80001814201530140815381428164014001590
:102B900048142818501410155814281A60142015B9
:102BA0006814281C701418157814281E8014001C32
:102BB0008814201C9014001D9814201DA014081CBB
:102BC000A814281CB014081DB8146816C014101CD2
:102BD000C8146818D014101DD814681AE014181CF2
:102BE000E814681CF014181DF814681E0815201548
:102BF0001015401518156015201528182815281CC3
:102C0000301548153815A8164815A8185815A81ACB
:102C10006015281A6815A81C7015A81A7815A81E22
:102C20008015401C8815601C9015401D9815601D6E
:102C3000A015481CA815681CB015481DB815E81645
:102C4000C015501CC815E818D015501DD815E81A25
:102C5000E015581CE815E81CF015581DF815E81E7D
:102C60000016001C0816081C1016401C1816481CDC
:102C70002016201C2816281C3016601C3816281711
:102C80004016001D481628195016401D5816281BBE
:102C90006016201D6816281D7016601D7816281FE6
:102CA0008016801C8816A01C9016801D9816A01DEA
:102CB000A016881CA816A81CB016881DB816681780
:102CC000C016901CC8166819D016901DD816681B1F
:102CD000E016981CE816681DF016981DF816681F77
:102CE0000017101C0817181C1017501C1817581C18
:102CF000201768182817681C3017E8183817A81705
:102D00004017101D4817A8195017501D5817A81B19
:102D10006017681A6817A81D7017E81A7817A81F97
:102D20008017C01C8817E01C9017C01D9817E01D65
:102D3000A017C81CA817E81CB017C81DB817E817BB
:102D4000C017D01CC817E819D017D01DD817E81B1A
:102D5000E017D81CE817E81DF017D81DF817E81F72
:102D600018186018301848183818601C5818301A8D
:102D70006818301C7018181A7818301E8018001A3D
:102D80008818081A9018001B98186019A018201AA3
:102D9000A818281AB018201BB818601DC018101ADF
:102DA000C818181AD018101BD818701AE018301A42
:102DB000E818701CF018581AF818701E0819201915
:102DC0001819601A2819081D301988193819881D12
:102DD0004819201B5819B01A6019081B6819B01C33
:102DE0007019881B7819B01E8019401A8819481A62
:102DF0009019401B9819601BA019601AA819181D7A
:102E0000B019601BB819981DC019501AC819581A62
:102E1000D019501BD819F01AE019181BE819F01C2A
:102E2000F019981BF819F01E381A701C581A301B2C
:102E3000681A301D701A181B781A301F901AC01AA1
:102E4000981AC81AB01AE01AB81AE81AC01A801BE1
:102E5000C81A881BD01AC01BD81A701BE01AA01BF6
:102E6000E81A701DF01AE01BF81A701F281B481D85
:102E7000381BC81D481B601B581BB01B681BB01DAE
:102E8000701BC81B781BB01F901BC01B981BC81B56
:102E9000A81B581DB01BE01BB81BD81DD81BF01B6E
:102EA000E81BF01DF81BF01F081C201C181C301C10
:102EB000381C681C481C601C581C701C781C381E70
:102EC000801C001E881C201E901C001F981C201FA8
:102ED000A01C081EA81C281EB01C081FB81C281FF8
:102EE000C01C101EC81C301ED01C101FD81C301F48
:102EF000E01C181EE81C381EF01C181FF81C781E59
:102F0000081D201D181D301D381DA81D481D601DE1
:102F1000581D701D681D281F781DB81E801D401E7D
:102F2000881D601E901D401F981D601FA01D481E1B
:102F3000A81D681EB01D481FB81D681FC01D501E6B
:102F4000C81D701ED01D501FD81D701FE01D581EBB
:102F5000E81D781EF01D581FF81DF81E081E201EC3
:102F6000181E301E481E601E581E701E781E381F08
:102F7000881EA01E901E801F981EA01FB01E881FB6
:102F8000B81EA81FC01E801FC81E881FD01E901FFD
:102F9000D81EB01FE01EA01FE81EA81FF01E981F1D
:102FA000F81E781F081F201F181F301F481F601FA2
:102FB000581F701F781FB81F881FA01F901FC01FA9
:102FC000981FE01FB01FC81FB81FE81FC81FE01FD1
:102FD000D81FF01F40F0200070472DE9F14FB0B02E
:102FE000924604910DF142013A9A2B9199464A700A
:102FF00000200AE01AF8011B0498309A9047002834
:10300000049000F042860D98401C0D909AF8000044
:1030100050B12528EED10021002207910892099194
:103020000A920B910C9204E00D9800F030BE41F032
:1030300001011AF8010F2028F9D023280CD02B28E1
:1030400004D02D2805D0302809D00BE041F0020132
:10305000EFE741F00401ECE741F00801E9E741F056
:103060001001E6E72A280FD1D9F8002052F8040B06
:10307000C9F8002000280F9003D540420F9041F07E
:1030800004010AF1010A14E00F92DFF8083C0AE09B
:103090000F98984205DA00EB800402EB4402303AC4
:1030A0000F920AF1010A9AF80020A2F130000A28D2
:1030B000EED39AF800002E2803D04FF0FF320E9284
:1030C00029E01AF8010F2A2809D1D9F8000050F890
:1030D000042BC9F800000E920AF1010A1BE02D280A
:1030E0000CBF0AF1010A002000220E92DFF8A44B67
:1030F0000BE040B90E9AA24205DA02EB820503EB1F
:103100004503303B0E930AF1010A9AF80030A3F10F
:1031100030020A2AEDD3ADF840100FF67C309AF851
:10312000001000F0FBFE08B11AF8010B8DF8420008
:103130009DF84200682805D19AF8000068280CD153
:10314000622106E06C2804BF9AF800006C2804D1C4
:1031500071218DF842100AF1010A12A806901AF89E
:1031600001BBBBF125012CD01C3900F09481091F53
:10317000022940F29081133900F0B984093900F036
:103180008A81891E00F04E85491E00F0FB84491E8D
:10319000022940F28081091F00F0F484491F00F0E9
:1031A000EF80491E00F0A384491E00F0D780C91E9D
:1031B0000CD0891E00F09B84C91E00F0988400F09A
:1031C0003CBD01230793252100F034BDD9F8000050
:1031D00050F8044BC9F80000002C059440F0AB8077
:1031E0002B994878002800F0A1804FF0FF340FF6AB
:1031F000B02000F0A3FE201A40F0478500F029BD62
:1032000001236A4602A9304600F00EFE002840F075
:103210003C856D1EF4D13096079D12AF75B1309E7E
:1032200017F8011B0498B0470028049000F02D8582
:103230000D98401C6D1E0D90F2D130960A9D3021E4
:10324000002D8DF800100CDD309E01236A4602A986
:10325000304600F0E9FD002840F017856D1EF4D1DE
:103260003096059F089D75B1309E17F8011B049894
:10327000B0470028049000F008850D98401C6D1E92
:103280000D90F2D130960B9D3021002D8DF800105D
:103290000CDD309E01236A4602A9304600F0C4FDD1
:1032A000002840F0F2846D1EF4D1309605980899FC
:1032B000099D471875B1309E17F8011B0498B04757
:1032C0000028049000F0E1840D98401C6D1E0D90C4
:1032D000F2D130960C9D3021002D8DF800100CDDC0
:1032E000309E01236A4602A9304600F09DFD002869
:1032F00040F0CB846D1EF4D130969DF8400041071C
:103300007FF584AE2020002C8DF800007FF77EAE84
:10331000309D01236A4602A9284600F085FD002859
:1033200040F0B384641EF4D130956FE60FF6583048
:10333000059000F08EBC0E9D002D04D5204600F0B7
:103340001DFE044607E02A46204600F033FE002812
:1033500014BF041B2C46089400F07BBCD9F8001065
:1033600051F8040BC9F8001020F00004002121F0EE
:10337000FF35CDE9024512AB0593782100F04EBC34
:103380002B99487820B14FF0FF340FF6CC2030E76E
:103390009DF84200622860D0682817D06A283FD084
:1033A0006C2806D0712847D074282CD07A281DD0DC
:1033B00062E0D9F8001051F8040BC9F80010002899
:1033C00066D14FF0FF340FF6A82012E7D9F80010AD
:1033D00051F8040BC9F8001020B94FF0FF340FF674
:1033E000902006E70D99018000F033BCD9F8001059
:1033F00051F8040BC9F80010002849D14FF0FF34F0
:103400000FF66C20F5E6D9F8001051F8040BC9F856
:10341000001000283CD14FF0FF340FF65420E8E6AE
:10342000D9F8001051F8040BC9F8001080B94FF01A
:10343000FF340FF63C20DCE6D9F8001051F8040BFD
:10344000C9F8001020B94FF0FF340FF62420D0E661
:103450000D9AD317C0E90023FBE3D9F8001051F807
:10346000040BC9F8001020B94FF0FF340FF600200C
:10347000BFE60D990170ECE3D9F8001051F8040B88
:10348000C9F8001020B94FF0FF340FF6E410B0E691
:103490000D990160DDE39DF842004C2807BFD9F883
:1034A0000010CA1DD9F80000C21D22F00702C9F899
:1034B0000020D2E900010832C9F80020CDE902015C
:1034C000C80F02D007982D210AE0BDF840008107FF
:1034D00002D507982B2103E0C00705D507982021C6
:1034E00012AA1154401C079012A807994BF0200310
:1034F00000EB010CDDE90201CDE92C01612BCDF8D7
:1035000014C021AC0BD00E98002848BF062105D46A
:1035100004BF4BF02000672801D101210E91DDE9A5
:1035200002014F0047EAD0777E15FF174FF0FF32B8
:10353000974208BF964210D1090341EA1051000397
:10354000002908BF002808D0ABF1610503211A2D1E
:10355000089118D30FF6381110E0DDE902014A0096
:10356000521512F1010F11D108030FD1ABF1610512
:1035700003211A2D08911FD30FF61C110322604658
:1035800000F044FD65E30FF60411F7E7DDE9020101
:103590006A4600F08FFDCDE902014BF02000612862
:1035A00011D1059830210170821C0592BBF1610F89
:1035B0000CBF7821582102E00FF6D801DEE74170F8
:1035C0000798801C0790DDE9020120F0000231F02D
:1035D000004308BF002A02D10026002542E14BF03B
:1035E0002008B8F1610F40F092800E98002847BF84
:1035F00021210191401C0190019FDDE92C017F1CDC
:1036000000220023DDE9024500F08CFD38BF85F083
:10361000004500998DF88420091F002F00910DF1BD
:10362000850632DD204629460022002300F094FD65
:103630002BD21C2200F0AAFD04460D4600F044FEE9
:10364000FF1F002F804609DD00F05AFE02460B46A0
:103650002046294600F01CFF04460D46F01D0721B8
:10366000B8F1000F0CDD491E5EBF08F00F0200F834
:10367000012D4FEA2818F3D502E0002200F8012DB1
:10368000491EFAD5C61D002FCCDC0DF18500361A77
:1036900001980DF185048642D8BF304600282FD40A
:1036A000B04206DA0DF185010A5C082AA8BF0F2195
:1036B00000DA0021024621AB134400E0401E13F85B
:1036C0000159521E8D42F9D00F2904D10DF1850107
:1036D0008B5C5B1C8B54002A04D50099091D21AC1E
:1036E000401C0091411E0BD4621813783033DDB2B8
:1036F0003A2DA4BF5B443A3B491E02F80139F4D588
:103700000E99002940F1AC80421E0E92A8E000996B
:10371000DFF8042747F29750414391FBF2F2009201
:10372000DDE92C45C2F10702002A25F0004504DD41
:103730002046294600F04CFB0BE052420020DFF807
:10374000DC1600F045FB02460B462046294600F0F9
:1037500011FF04460D46B8F1660F06BF009F0A37F9
:1037600006270E983F18142FC8BF142730208DF855
:1037700084000DF18506002F34DD2046294601F036
:103780001DF801460A4606F1080304200A26B2FB8A
:10379000F6F606EB860EA2EB4E02303203F8012C51
:1037A0000A22B6FBF2F202EB820EA6EB4E06303690
:1037B000401E03F8026DE9D1083F002F03F108060F
:1037C000D9DD084601F00CF802460B462046294692
:1037D00000F05EFE0022DFF8483601F00FF80446E4
:1037E0000D46CAE70DF18500361A0DF1850404E097
:1037F0000098401E761E0090641C20783028F7D078
:10380000B8F1660F02D10099491C04E0B8F1650FC8
:103810000CBF012100210E9808188642B8BF701E07
:1038200000281DD4B04204DA215C3429C8BF3921F4
:1038300000DC30210246631E9D1800E0401E15F892
:103840000169521E8E42F9D0392902D1A15C491C6E
:10385000A154002A04D50099491C1C46401C009123
:103860000646009D01F0A0F8406A0778DDF8388030
:1038700030B2002802DC01260FF220644BF0200059
:10388000662808BF6D1C16D0672846D128B210F1F3
:10389000040F48DB404546DA9DF840006D1C0107E7
:1038A00003D430B24045D8BF804628B2B8EB0008F8
:1038B00048BF4FF000080FFA85FBBBF1000F00F383
:1038C000B5800898411C0891302205990A54B8F136
:1038D000000F03DC9DF84000010704D50898411C47
:1038E000089105990F5418EB0B0FB8BFC8F10005EC
:1038F0002DB26842A84432B20B909045B8BF4646FC
:10390000059B089836B2099632462146184400F0C5
:103910007DFBA8EB06000C90D2E0BBF1610F17D144
:103920004FF0700B19E030B2404504DA9DF84010BA
:103930000A0758BF8046B8F1010848BF4FF0000899
:10394000BBF1670F14BF4FF0450B4FF0650B04E060
:10395000BBF1410F08BF4FF0500B0898411C089174
:10396000B8F1000F059914F8012B0A5403DC9DF8F7
:10397000400001071AD50898411C0891B8F1000FC2
:1039800005990F5412DD761E30B28045B8BF464609
:103990000598089B32B22146184400F037FB08997D
:1039A00036B271180891A8EB06000B90059808999B
:1039B000084429B2002980F800B003D42B224270B9
:1039C000821C04E02D2242700D46821C6D420021B3
:1039D0002CAB28460AE004460A2094FBF0F000EBEA
:1039E0008005A4EB450403F8014B491C00B20028F4
:1039F000F1DC012906DC4BF02000652804BF3020F3
:103A000002F8010B00292CAB08D1302002F8010B81
:103A100006E0491E585C303002F8010B0029F8DC42
:103A2000059908980844121A099249E030B229B25F
:103A300088421CDA0598089B32B22146184400F0EF
:103A4000E5FA089936B271180891ABEB0600B8F1A7
:103A5000000F0B9003DC9DF84000020704D5059889
:103A600047540999491C0991CDF8308028E0059800
:103A7000089B2AB22146184400F0C8FA0898761B21
:103A80005844B8F1000F089003DC9DF840100A0775
:103A900003D5411C089105990F5430B28045B8BF39
:103AA00046460598089B32B204EB0B01184400F01F
:103AB000ADFA089836B230180890A8EB06000B90C3
:103AC0009DF8400000F01400102840F0C280079AD2
:103AD00008990B988A18099982180C988A188218E4
:103AE0000F98824280F2B580821A0A92B1E09DF866
:103AF0004200622808D068280ED06A2814D06C28AA
:103B00001FD0712810D01CE0D9F8001051F8040B18
:103B1000C9F80010C0B21AE0D9F8001051F8040B2F
:103B2000C9F8001080B212E0D9F80000C21D22F0DE
:103B30000702C9F80020D2E900010832C9F80020C4
:103B400006E0D9F8001051F8040BC9F80010002164
:103B5000CDE902019DF8400001075AD5DDE90223B5
:103B6000002B08BF002A54D04BF02000782850D1F9
:103B7000079812A930220A54401C431C079301F8ED
:103B800000B046E09DF84200622808D068280ED0B8
:103B90006A2814D06C281FD0712810D01CE0D9F8E6
:103BA000001051F8040BC9F8001040B21AE0D9F81F
:103BB000001051F8040BC9F8001000B212E0D9F857
:103BC0000000C21D22F00702C9F80020D2E900015E
:103BD0000832C9F8002006E0D9F8001051F8040BAB
:103BE000C9F80010C117CDE90201002902D50798D4
:103BF0002D210AE0BDF84000810702D507982B214E
:103C000003E0C00705D50798202112AA1154401CD3
:103C1000079012A8079901440591594602A800F09F
:103C20004DF816E001200790D9F8000050F8041B69
:103C3000C9F800008DF848100BE001212522BBF1E6
:103C4000000F07918DF8482003D0022207928DF8CB
:103C500049B00F9A07980A990C9C121A0898521AA0
:103C60000B99121A0998521A121A9DF84000141B47
:103C700041073FF5D1AA2020002C8DF800007FF7E6
:103C8000CBAA309E2546FFF7BBBA4FF0FF3031B0CC
:103C9000BDE8F08FCBCCCC0C686A6C747A4C000019
:103CA0007072696E74665F733A2062616420257376
:103CB00020617267756D656E740000002DE9FC4728
:103CC00007468A463C6950466F2808BF082505D03C
:103CD000FFF780F9782814BF0A251025D7E90001DD
:103CE0003C2680468946BAF1640F18BFBAF1690FC5
:103CF00005D1002903D5D8F1000869EB4909B9F1CC
:103D0000000F08BFB8F1000F0CD1386B50B9082D67
:103D10003AD197F83800010736D530223B2684F88F
:103D20003B2031E08DF800A0404649462A46EB177B
:103D300000F03EFE3032D0B2761E3A2801960EDAFE
:103D4000A255404649462A46EB1700F031FE804610
:103D50005FEA010908BFB8F1000F05D108E09DF83E
:103D600000001218513AEBE7F868A1198842DBD33A
:103D7000082D09D197F83800010705D5A05D302836
:103D800002D0761E3020A055C6F13C02BA61A119BE
:103D9000F960386B824208DA821A3A624FF6EF70A5
:103DA000398F01403987BDE8F38700280ED597F891
:103DB000380000F01400102808D17B6B7969386A4C
:103DC0005B1A1B1A9A1A002AC8BF3A62BDE8F38729
:103DD0002DE9D04306460F4614464FF00008DFF8A1
:103DE000449012E0E00707D542464B46304639463C
:103DF00000F004FD06460F464046494642464B4603
:103E000000F0FCFC641080468946002CEAD1304664
:103E10003946BDE8D0830000A08601000000F03FD5
:103E200084D7974100002440F8B505460E46174652
:103E30001C4600205CB117F8011BB068A847B060B1
:103E400030B1F06A401CF0620020641EF3D1F2BD74
:103E50004FF0FF30F2BD00007072696E74665F73E0
:103E60003A20256E20646973616C6C6F776564001D
:103E70007072696E74663A2062616420256E2061FA
:103E80007267756D656E7400000000006E616E00F3
:103E90004E414E00696E6600494E46003000F0B457
:103EA0000246106895681318506803EB5004C00769
:103EB00048BF4D44A3422DD013F8016B16F0030008
:103EC00004BF13F8010BC01C31090F2907D113F8E7
:103ED000011B0F3103E013F8017B05F8017B401E45
:103EE000F9D10029E6D013F8010BC6F38106032EA1
:103EF00008BF13F8016B00EB06204042284400265F
:103F0000B71E8F421EBF10F8017B05F8017B761C9F
:103F1000F6D1CFE7F0BC02F10C007047C9B20278CD
:103F20008A421AB11CBF10F8012FF9E718BF002010
:103F300070470268531C03601170704780B500B968
:103F400006A005490B681BB122220021984701E019
:103F500000F046FE222002BDA4350020636F6E7380
:103F6000747261696E742068616E646C65723A2067
:103F7000626164206D6573736167650000F1010320
:103F8000810704D010F8011B820781B1FAD10268C1
:103F9000A2F10131914311F0803104BF50F8042F98
:103FA000F6E709BAB1FA81F100EBD100401CC01A62
:103FB00070472E00C9B2830706D0521E22D310F8D4
:103FC000013B9942F7D11FE0083A13D302F10402F2
:103FD00041EA012141EA014150F8043B121F21BF8F
:103FE0004B40A3F1013C2CEA030C1CF0803FF3D0C2
:103FF000C9B2001F083210F8013B521E28BF91EAD7
:10400000030FF8D818BF0120401E704762B38B071A
:1040100008D0521E11F8013B00F8013B00F024804B
:104020008B07F6D1830740F0208000BF103A07D3FA
:1040300030B4B1E83810103AA0E83810F9D230BCEA
:10404000530724BFB1E80810A0E8081044BF51F896
:10405000043B40F8043BD20724BF31F8022B20F880
:10406000022B44BF0B7803707047121F17D35B00FD
:1040700009D151F8043B20F8023B1B0C121F20F819
:10408000023BF6D20BE051F8043B00F8013B1B0A5F
:1040900020F8023B1B0C121F00F8013BF3D238BF83
:1040A000121D521E24BF11F8013B00F8013BF8D845
:1040B0007047000010B5144600F002F8226010BDF1
:1040C000C1F30A5343B14A0012F5001F28D2A3F2EC
:1040D000FE32A1EB0251704750EA410C20D001F0B2
:1040E000004C31EA0C01B1FA81F204BFB0FA80F35E
:1040F000D2180B3AB2F120032CBF00FA03F1914021
:1041000041EA0C013EBFC2F1200C20FA0CF3194326
:104110009040524240F2FD33D21A01EB03517047F6
:104120000022704741EA030C50EA4C0C52EA0C0C96
:104130004FF4001C09D307D01CEB410F9CBF1CEBB4
:10414000430F8B4208BF824270471CEB430FFBD8E2
:10415000994208BF9042704741EA030C50EA4C0C68
:1041600052EA0C0C4FF4001C09D307D01CEB410F92
:104170009CBF1CEB430F994208BF904270471CEB59
:10418000410FFBD88B4208BF82427047124254D481
:1041900040F2FF7C1CEA11530FD0634531D09B18CD
:1041A00063453CBF01EB0251704701F0004141EA19
:1041B0000C510020AFF30080704750EA410320D03B
:1041C00001F0004C91EA0C011CD0B1FA81F30B3BD9
:1041D0009A420DD9D21A994051EA0C01C3F1200C30
:1041E00020FA0CFC61449840531C40F2FF7CD7E756
:1041F000914041EA0C01C2F1200C20FA0CF3194362
:1042000090407047B0FA80F31533202BE0D3202A7A
:10421000EED3203A203B9A4209D9D21A00FA03F190
:1042200041EA0C010020531C40F2FF7CB8E700FA81
:1042300002F141EA0C0100207047524240F2FF7C3B
:104240001CEA11530DD06345DBD0B2EB030C3CBF2D
:10425000A1EB025170470CF1010221EA035141F434
:10426000801150EA410CCCD001F0004C352A27DCFB
:1042700030B481EA0C01B2F1200309DAC2F1200363
:10428000044601FA03F5D0402843D1409C400CE09D
:10429000C3F12002450020FA03F418BF44F00104E2
:1042A00021FA03F091400C43002174F1004550F1D4
:1042B000000051EB0C01244230BC7FF47BAF70470F
:1042C0006146002076E70000C1F30A5340F21E4227
:1042D000D31A0CDDCA0283F3070342EA505242F0BC
:1042E0000042DA4002EBE17282EAE17070476FEA65
:1042F000E17203F2E13008B182F000407047000043
:1043000010F0004160B148BF4042B0FA80F29040E6
:10431000D21CC2F5846241EA025202EBD021400570
:1043200070470000841A71EB030604D26E40001B34
:10433000B141121973414FF4001C1CEB410F34BF03
:104340007CEB430683E00C0DA4EB1356362E00F3F2
:104350007C80012E45EAC32341DC43EA525312BF5D
:10436000D20292025B08240545EAC12141EA50517C
:10437000D2EBC020994125D407D1B0FA80F610FACB
:1043800006F162D00020203608E0B1FA81F6B14093
:10439000C6F1200220FA02F21143B0404FEAF47451
:1043A000B4EB465434F001064FEA74040AD8D6F54B
:1043B0000016760D04F00044F04061FA06F2504019
:1043C000F1404840C00A40EA415021F0004128BF76
:1043D0005FEA500550F1000044EBD12135E0DB0AE3
:1043E00045EAC121C90AB6F120050EDD42EA0242C2
:1043F000120CC5F1200603FA06F6EB4042EA060568
:104400006D42984161F100010DE062FA06F5F2405B
:10441000554063FA06FC82EA0C02F3405A406D42B2
:10442000904161EB030111F4801F05D1641E620508
:1044300002D06D004041494121F48011430875F1DB
:10444000004350F1000041EB045170BC70471CEB7D
:10445000410F15D223F0004352EA43060BD04FEA36
:104460004C0CBCEB410F04D80C0D661E342EB7DD8E
:10447000EBE7801A994150EA410608BF0021E4E7C2
:1044800008BF1CEB430F28BF6FF00001DDE7000001
:1044900070B491EA030F4FF000457FF543AF6B40D6
:1044A000841A71EB030603D2001BB1411219734148
:1044B0004FF4001C1CEB410F34BF7CEB430442E083
:1044C0000C0DA4EB1356352E4FDC45EAC323DB0A53
:1044D00045EAC121C912B6F120050DDD63FA05F6E2
:1044E000EB4086EA0305124218BF45F00105C018EB
:1044F00051F100010CD213E062FA06F5F24055408A
:10450000F3415A40B340F3405A408018594107D311
:1045100049085FEA30005FEA350528BF45F001052C
:1045200001F58011420875F1004250F1000041EBA5
:1045300004514E0016F5001F70BC38BF70470020B4
:10454000090D090570471CEB410F10D252EA4306D2
:104550000BD0BCEB410F05D80C0DAB43661E342EBF
:10456000B6DD02E0AB438018594170BC704770BCA7
:1045700070470000F0B540F2FF7581EA030C0CF0C3
:10458000004C15EA11541DBF15EA1357AC42AF4257
:10459000E5E0BC41C1F31301C3F31303801A994151
:1045A00043F4801304D2641E001849418018594115
:1045B000C90241EA5051B1FBF3F603FB1611A2FB0D
:1045C0000675D7EBC020A94102D2761E801859414A
:1045D000C90241EA5051B1FBF3FE03FB1E11A2FBDD
:1045E0000E75D7EBC020A94103D2AEF1010E8018A1
:1045F0005941890241EA9051760546EA8E2EB1FB77
:10460000F3F603FB1611A2FB0675D7EB8020A94138
:1046100002D2761E80185941C90241EA50514EEA31
:10462000060EB1FBF3F603FB1611A2FB0675D7EBE2
:10463000C020A94102D2761E80185941C90241EA20
:104640005051B1FBF3F703FB1711A2FB0735D3EB76
:10465000C020A94167F100070CBF004247F00107E5
:1046600066F3D5274FEA1E31B80814F5806412DDD1
:10467000BD0775F1004250EB0E5051EB045111F59E
:10468000801F5CBF41EA0C01F0BD4CF07F6141F03E
:10469000E0410020F0BDBD076D0840EA0E5041F436
:1046A0008011D4F10104B4F120060ADAC4F1200625
:1046B0000200E04001FA06F3E1401843B24015431E
:1046C0000EE0342C13DCC6F1200445EA40056D08E9
:1046D00020FA06F2154321FA06F0A1400D4300210D
:1046E00075F1004250F1000051EB0C01F0BD0020CB
:1046F0005FEA0C01F0BDCFB992185B41B3FA83F7C2
:1047000004BFB2FA82F6BF190B3FB7F120062FBFE4
:1047100002FA06F3BB40C7F1200622FA06F638BFBC
:104720003343BA401CB1E419641E33E77F4231F0D1
:104730000041B1FA81F404BFB0FA80F6A4190B3C31
:10474000B4F120062FBF00FA06F1A140C4F1200603
:1047500020FA06F638BF3143A0403C1B1AE7AC42B2
:104760001ABF05EA1357AF4212E050EA41061CBFD8
:1047700052EA4306BFE750EA4107304661461CBF94
:1047800041EA0551F0BD52EA430C08BFC143F0BDF8
:1047900000204FF4001616EB410F98BF16EB430FA5
:1047A00008BF16EB410F24BFC14305E016EB430FD2
:1047B0000CBF61464CEA0551F0BD0000400D40F2CF
:1047C0001E4C40EAC120BCEB115C40F0004003D419
:1047D0008CF30701C84070476FEAE1707047000032
:1047E00050B1B0FA80F18840C91CC1F58461090557
:1047F00001EBD021400570470146704730B540F2CB
:10480000FF7C1CEA11541DBF1CEA13556445654525
:104810003FE0641981EA030C6FF35F530CF0004C26
:1048200043F48013C90241F0004141EA505EC502E1
:104830001100A5FB020200284FF00000EEFB012052
:104840004FF00001E3FB052118BF42F001024018C0
:1048500000214941E3FB0E01A4F580640D0302D25F
:1048600092184041494154F1010470DD450872F14C
:10487000004250F1000051EB0451A1F5801102D427
:1048800041EA0C0130BD40F2FF7E4CEA0E5100209F
:1048900030BD0CEA1355644518BF654581EA030C29
:1048A0000CF0004C41D050EA410E1CBF52EA430EBE
:1048B00002E06146002030BD24422C441BD15FEA57
:1048C000050EF6D0090302BF01460020AEF1140E1A
:1048D000B1FA81F5AEEB050401FA05FE0C35C5F120
:1048E000200100FA05F5C8404EEA000E6FF35F5351
:1048F00043F480139CE733F00043B3FA83F504BF1D
:10490000B2FA82FE75440B3D641BB5F1200E2FBF39
:1049100002FA0EF3AB40C5F1200E22FA0EFE38BFAC
:1049200043EA0E03AA40641C7CE750EA410E14BF20
:1049300052EA430E6FF000014FF4001515EB430FE0
:104940008EBF194615EB410F9DE7B4D830BDD4F1A9
:104950000104B4F120050FDAC4F12005520828BF84
:1049600042F0010210FA05FE01FA05F57244E2BFB9
:10497000E0402843E1400FE0352C9ADCC5F12004EB
:1049800052EA400220FA05F218BF42F0010231FA61
:1049900005F0A1400A43002172F1004250F10000ED
:1049A00051EB0C0130BD000000487047142000207E
:1049B000BBBBE1B1B2F5803F80F07E80022A1ED9F8
:1049C0008C46B1FBF2F102FB11C31B0443EA104316
:1049D000B3FBF2FC02FB1C3380B240EA0343B3FB9F
:1049E000F2F002FB103240EA0C4000237047022A2A
:1049F00005D98446B0FBF2F002FB10C270474AB101
:104A000005D100F0010249085FEA3000704700223A
:104A10000023704700F0E8B80B00020000210020DE
:104A20007047904271EB030CF6D3B3F5803F2FD261
:104A3000F0B5B3FA83F7B1FA81F4A7F10F0E3D1B7D
:104A40005340CEF1200602FA0EF2F3415340B5F185
:104A50000F0746D80F3C2C444140C4F12006A0402B
:104A6000F1414140B1FBF3F603FB1611A2FB0645F1
:104A7000001BA94102D2761E8018594180EA01022A
:104A800021FA0EF362FA0EF200215A403046F0BDD0
:104A900030B4B1FBF3FC03FB1C11A2FB0C45001B63
:104AA000A94103D2ACF1010C8018594130BC024637
:104AB0000B46604600217047B2F1807F65D3F0B5A8
:104AC000B2FA82F7B1FA81F4C7F10F063D1B22FA60
:104AD00006F307F1110EF24120355A40B5F10F07E8
:104AE000B8D94140C4F12006A040F1414140B1FB9A
:104AF000F3FC03FB1C11A2FB0C45001BA94103D2D4
:104B0000BCF1010C801859410F2F12D30F3FC9037C
:104B100041EA5041B1FBF3F603FB1611A2FB064537
:104B2000D4EBC030A94102D2761E8018594146EA22
:104B3000CC3C07B34140C7F12006B840F1414140A9
:104B4000B1FBF3F603FB1611A2FB0645001BA941BE
:104B500002D2761E8018594180EA010221FA0EF332
:104B6000C7F1200462FA0EF20CFA07F05A402CFA50
:104B700004F13043F0BD80EA010221FA0EF3002176
:104B800062FA0EF260465A40F0BD8C46B1FBF2F17B
:104B900002FB11C31B0243EA1063B3FBF2FC02FBEE
:104BA0001C331B024CEA002043EA1063B3FBF2FC07
:104BB00002FB1C331B024CEA002043EA1063B3FBE8
:104BC000F2FC02FB1C331B024CEA002043EA106398
:104BD000B3FBF2FC02FB1C324CEA002000237047BE
:104BE000012000F003B800007047000080B5AFF36B
:104BF0000080024A11001820ABBEFBE7260002002D
:104C000010B50400002C01D1012033E0A069002878
:104C1000FFD194F83D00002805D1002084F83C0025
:104C2000200000F0C0FD242084F83D002068C0680A
:104C300030F400502168C860200000F05BFC206860
:104C4000006930F49040216808612068406930F0C4
:104C50002A00216848612068C06850F4005021682B
:104C6000C86000202064202084F83D00202084F8C3
:104C70003E00002010BD13B50400130094F83D0061
:104C8000202844D10198002803D0180080B20028C1
:104C900001D101203CE094F83C00012801D1022020
:104CA00036E0012084F83C0001982062A384E3846C
:104CB00000202064212084F83D001648616BC86301
:104CC0001548616B08641548616BC8640020616B0E
:104CD000086501A89BB221680A1D0168606B00F09D
:104CE0005DFE7FF0400021680860002084F83C00F1
:104CF0002068143050E8001F51F08001206810F146
:104D0000140242E800100028F2D1002000E0022046
:104D100016BD0000DD5000082B510008EB510008C3
:104D20001CB5040094F83E00202839D1002903D096
:104D3000100080B2002801D1012032E094F83C003C
:104D4000012801D102202CE0012084F83C00012040
:104D5000206392B2200000F073FA01000800C0B294
:104D600000281AD1206B012816D10020009020685D
:104D700000680090206840680090009820680C301F
:104D800050E8002F52F01002206810F10C0343E8A5
:104D900000200028F2D100E001210800C0B200E0AC
:104DA000022016BD10B5040020680C3050E8001F2A
:104DB00031F49071206810F10C0242E800100028D4
:104DC000F2D12068143050E8001F490849002068DB
:104DD00010F1140242E800100028F2D1206B0128E3
:104DE0000CD120680C3050E8001F31F01001206811
:104DF00010F10C0242E800100028F2D1206840694E
:104E0000400620D52068143050E8001F31F04001E2
:104E1000206810F1140242E800100028F2D1A06BC3
:104E2000002810D00020A16B0865A06B00F0F0FDF9
:104E3000002808D0A06B00F051FF202803D11020DB
:104E40002064032007E00020E085202084F83E0055
:104E500000202063002010BD38B5040020680168E0
:104E60002068C268206843690020002011F00F000C
:104E7000002807D18D0605D5950603D5200000F042
:104E8000C4FA2AE1002870D0D80702D412F4907F27
:104E90006BD00800C00705D5D00503D5206C50F0B5
:104EA00001002064480706D51800C00703D5206C10
:104EB00050F002002064880706D51800C00703D50B
:104EC000206C50F004002064080707D5900601D438
:104ED000D80703D5206C50F008002064206C00280F
:104EE00042D0880604D5900602D5200000F08DFA45
:104EF00020684069800910F00100216C090701D485
:104F000000282CD0200000F006FA206840694006F6
:104F100021D52068143050E8001F31F0400120688E
:104F200010F1140242E800100028F2D1A06B002812
:104F30000DD00FF24540A16B0865A06B00F0B6FDE7
:104F4000002811D0A06BA16B096D88470CE02000F0
:104F500000F040FF08E0200000F03CFF04E02000EB
:104F600000F038FF00202064B7E0206B012840F0FB
:104F7000A480C80640F1A180D00640F19E800020A8
:104F800000902068006800902068406800900098B9
:104F900020684069400655D5A06B00684068010054
:104FA00089B200294DD00100A28D89B2914248D228
:104FB000E085A06BC069B0F5807F3BD020680C30E5
:104FC00050E8001F31F48071206810F10C0242E8B3
:104FD00000100028F2D12068143050E8001F490862
:104FE0004900206810F1140242E800100028F2D1B4
:104FF0002068143050E8001F31F04001206810F1A3
:10500000140242E800100028F2D1202084F83E006B
:105010000020206320680C3050E8001F31F01001A0
:10502000206810F10C0242E800100028F2D1A06BB9
:1050300000F0EEFCA18DE08D091A89B2200000F08D
:10504000CBFE4AE0A08DE18D411AE08D002833D0DF
:10505000080080B200282FD020680C3050E8002FC4
:1050600032F49072206810F10C0343E8002000280D
:10507000F2D12068143050E8002F52085200206806
:1050800010F1140343E800200028F2D1202084F816
:105090003E000020206320680C3050E8002F32F0E2
:1050A0001002206810F10C0343E800200028F2D120
:1050B00089B2200000F090FE0FE0080605D510062A
:1050C00003D5200000F062F907E0480605D5500638
:1050D00003D5200000F08BF9FFE731BD80B501005A
:1050E000886B09680968C9051CD40021C18401685E
:1050F000143151E8002F32F08002016811F11403DD
:1051000043E800210029F2D101680C3151E8002F59
:1051100052F04002016811F10C0343E8002100291C
:10512000F2D101E000F06EFE01BD80B5806B00F0B1
:10513000D9FF01BD80B50100886B09680968C90500
:105140003BD40021C18501680C3151E8002F32F4B5
:105150008072016811F10C0343E800210029F2D1AB
:105160000168143151E8002F52085200016811F112
:10517000140343E800210029F2D10168143151E8F9
:10518000002F32F04002016811F1140343E80021BE
:105190000029F2D1202180F83E10016B01290CD1A9
:1051A00001680C3151E8002F32F01002016811F152
:1051B0000C0343E800210029F2D1016B012903D13E
:1051C000818D00F009FE01E000F01DFE01BD80B5FB
:1051D000806B016B012905D1818D490889B200F0EE
:1051E000FBFD01E000F014FE01BD10B50021846B51
:1051F00020684069C00910F0010094F83D10212991
:1052000006D1002804D00020E084200000F072F8CD
:1052100020684069800910F0010094F83E102229AE
:1052200006D1002804D00020E085200000F073F8AB
:10523000206C50F010002064200000F0CBFD10BD69
:1052400013B5040013000198A062A3850020206418
:10525000222084F83E00DFF8FC04A16BC863DFF86D
:10526000F804A16B0864DFF8F404A16BC8640020A3
:10527000A16B086501A89BB202682068011DA06BA4
:1052800000F08CFB002000902068006800902068EF
:10529000406800900098002084F83C0020690028B5
:1052A0000CD020680C3050E8001F51F48071206849
:1052B00010F10C0242E800100028F2D120681430EE
:1052C00050E8001F51F00101206810F1140242E87B
:1052D00000100028F2D12068143050E8001F51F06F
:1052E0004001206810F1140242E800100028F2D1B9
:1052F000002016BD01680C3151E8002F32F0C002C9
:10530000016811F10C0343E800210029F2D12021AA
:1053100080F83D10704701680C3151E8002F32F4DD
:105320009072016811F10C0343E800210029F2D1C9
:105330000168143151E8002F52085200016811F140
:10534000140343E800210029F2D1016B01290CD19B
:1053500001680C3151E8002F32F01002016811F1A0
:105360000C0343E800210029F2D1202180F83E10EF
:10537000002101637047000080B5806B0021C1856A
:105380000021C18400F026FD01BD000090F83D1011
:1053900021292AD18168B1F5805F0CD101690029EA
:1053A00009D1016A0988C905C90D02685160016AFD
:1053B000891C016205E0016A4A1C026209780268E0
:1053C0005160C18C491EC18489B200290BD101688A
:1053D000C96831F080010268D1600168C96851F084
:1053E00040010068C160002000E00220704780B5E5
:1053F0000168C96831F040010268D160202180F85D
:105400003D1000F0FFFC002002BD80B590F83E107A
:1054100022296DD18168B1F5805F0DD10169002924
:105420000AD10021816A02685268D205D20D0A8031
:10543000816A891C816217E0826A00218168B1F566
:10544000805F05D08168002906D10169002903D158
:1054500001684968117004E00168496811F07F0132
:105460001170816A491C8162C18D491EC18589B252
:1054700000293BD10168C96831F020010268D16080
:105480000168C96831F480710268D16001684969B6
:105490004908490002685161202180F83E10016BE3
:1054A00001291FD10021016301680C3151E8002F4F
:1054B00032F01002016811F10C0343E800210029C9
:1054C000F2D101680968C90608D500210091016878
:1054D000096800910168496800910099818D00F088
:1054E0007BFC01E000F08FFC002002E0002000E0E7
:1054F000022002BD2DE9F04705002868016931F45A
:105500004051E868014328680161A968286901439E
:1055100068690143E86901432868C268904802400D
:1055200011432868C1602868416931F44071A86955
:1055300001432868416128688A49884203D0286865
:105540008949884203D100F07AFE040002E000F0AD
:105550006BFE0400E869B0F5004F7DD17FF0630871
:105560001926002722000023A6FB020106FB0311D7
:1055700007FB02116A6800235B0043EAD273520002
:10558000FFF716FA6421B0FBF1FA22000023A6FB14
:10559000020106FB031107FB02116A6800235B008E
:1055A00043EAD2735200FFF703FA81462200002338
:1055B000A6FB020106FB031107FB02116A68002328
:1055C0005B0043EAD2735200FFF7F2F96421B0FBAB
:1055D000F1F008FB0090C00032306421B0FBF1F024
:1055E000400010F4F87010EB0A10824622000023ED
:1055F000A6FB020106FB031107FB02116A680023E8
:105600005B0043EAD2735200FFF7D2F981462000D3
:10561000002102000B00A6FB020106FB031107FBA1
:1056200002116A6800235B0043EAD2735200FFF75D
:10563000BFF96421B0FBF1F008FB00985FEAC808ED
:1056400018F132086420B8FBF0F010F0070010EBFE
:105650000A00296888607BE07FF06308192600272C
:1056600022000023A6FB020106FB031107FB021127
:105670006A6800239B0043EA92739200FFF798F94F
:105680006421B0FBF1FA22000023A6FB020106FB15
:10569000031107FB02116A6800239B0043EA92731F
:1056A0009200FFF785F9814622000023A6FB020144
:1056B00006FB031107FB02116A6800239B0043EA03
:1056C00092739200FFF774F96421B0FBF1F008FBCC
:1056D0000090000132306421B0FBF1F010F0F000D6
:1056E00010EB0A10824622000023A6FB020106FBF3
:1056F000031107FB02116A6800239B0043EA9273BF
:105700009200FFF755F981462000002102000B00AE
:10571000A6FB020106FB031107FB02116A680023C6
:105720009B0043EA92739200FFF742F96421B0FBB9
:10573000F1F008FB00985FEA081818F132086420BD
:10574000B8FBF0F010F00F0010EB0A002968886039
:10575000BDE8F08735510008CF510008EB51000833
:10576000F369FFFF001001400014014080B50020E4
:1057700000904948016851F480410160006810F4CC
:10578000804000900098002000904448016851F04B
:1057900080510160006810F0805000900098072050
:1057A00000F0CDFD01BDF8B586B004001422002143
:1057B00001A800F0F3FD20683949884269D1002032
:1057C00000903648016851F400310160006810F41F
:1057D000003000900098002000903248016851F09D
:1057E00001010160006810F00100009000980C2099
:1057F00001900220029001200390032004900720D2
:10580000059001A9284800F0D3FD284D28482860BC
:105810005FF000666E600020A8600020E8604FF432
:1058200080672F61002068610020A8610020E86186
:105830000020286200206862280000F03FF800285D
:1058400001D000F04DFCA563AC631A4D1A482860E6
:105850006E604020A8600020E8602F610020686131
:105860000020A8610020E861002028620020686212
:10587000280000F023F8002801D000F031FC656317
:10588000AC6300220021262000F05DFD262000F000
:105890006BFD07B0F0BD00004438024040380240C4
:1058A00000440040303802400000024050340020E4
:1058B00088600240B0340020A060024038B5040087
:1058C000002000F06FFE0500002C01D1012064E0F3
:1058D000606A0028022084F83500002084F8340033
:1058E000206800684008400021680860206800685F
:1058F000C0070BD500F056FE401B0628F6D320202B
:105900006065032084F83500032046E020680168C4
:10591000DFF82C04014060680143A0680143E0689F
:1059200001432069014360690143A0690143E069C3
:105930000143206A0143606A042803D1E06A0143FD
:10594000206B01432068016020684569ED08ED0087
:10595000606A0543606A042810D1A06A0543E06AC2
:1059600000280BD0200000F0F1F9002806D04020DC
:105970006065012084F8350001200EE02068456153
:10598000200000F0C4F93F22E16D8A4082600020CF
:105990006065012084F83500002032BD70B5040038
:1059A0000025A66D94F83400012801D102202EE0D4
:1059B000012084F8340094F83500012821D1022018
:1059C00084F8350000206065200000F089F93F214F
:1059D000E06D8140B1602068006850F016002168D9
:1059E0000860206C002805D02068006850F008008E
:1059F000216808602068006850F001002168086094
:105A000003E0002084F8340002252800C0B270BDF5
:105A100070B50400A56D00F0C5FD060094F83500D2
:105A2000022806D080206065002084F83400012020
:105A30003BE02068006830F01600216808602068AC
:105A4000406930F0800021684861206C002802D154
:105A5000A06C002805D02068006830F0080021689C
:105A600008602068006840084000216808602068DD
:105A70000068C0070ED500F095FD801B0628F6D300
:105A800020206065032084F83500002084F834006D
:105A900003200AE03F21E06D8140A960012084F8E5
:105AA0003500002084F83400002070BD90F83510D7
:105AB000022903D080214165012009E0052180F8F9
:105AC0003510016809684908490000680160002034
:105AD0007047F8B5040000200090DFF86802006805
