:020000040800F2
:10000000F804002009230008D9210008DB2100089A
:10001000DD210008DF210008E121000800000000C8
:10002000000000000000000000000000E3210008C4
:10003000E521000800000000E7210008E921000890
:1000400045230008492300084D23000851230008D8
:1000500055230008592300085D2300086123000888
:1000600065230008692300086D2300087123000838
:1000700075230008792300087D23000881230008E8
:10008000F121000885230008892300088D2300083A
:100090009123000895230008992300089D23000858
:1000A000A1230008A5230008A9230008AD23000808
:1000B000B1230008B5230008B9230008BD230008B8
:1000C000C1230008C5230008C9230008CD23000868
:1000D000D1230008D5230008FB210008D9230008FC
:1000E000DD230008E1230008E5230008E9230008D8
:1000F000ED230008F1230008F5230008F923000888
:10010000FD23000801240008052400080924000834
:100110000D240008112400081524000819240008E3
:100120001D24000821240008252400082924000893
:100130002D24000800000000000000003124000809
:1001400035240008392400083D2400084124000813
:1001500045240008492400084D24000851240008C3
:1001600055240008592400085D2400086124000873
:1001700065240008692400086D24000800000000C0
:1001800000000000712400080000000000000000D2
:100190007524000800000000000000007924000819
:1001A0000000000000000000000000007D240008A6
:1001B0008124000885240008892400088D24000873
:1001C0009124000810B50400002C01D1012033E077
:1001D000A0690028FFD194F83D00002805D1002037
:1001E00084F83C00200000F040FD242084F83D000D
:1001F0002068C06830F400502168C860200000F01A
:10020000DBFB2068006930F49040216808612068B9
:10021000406930F02A00216848612068C06850F4C5
:1002200000502168C86000202064202084F83D0030
:10023000202084F83E00002010BD1CB5040094F876
:100240003E00202839D1002903D0100080B20028B8
:1002500001D1012032E094F83C00012801D10220B4
:100260002CE0012084F83C000120206392B22000A1
:1002700000F047FA01000800C0B200281AD1206B34
:10028000012816D1002000902068006800902068A6
:1002900040680090009820680C3050E8002F52F021
:1002A0001002206810F10C0343E800200028F2D16E
:1002B00000E001210800C0B200E0022016BD10B528
:1002C000040020680C3050E8001F31F49071206861
:1002D00010F10C0242E800100028F2D1206814301E
:1002E00050E8001F49084900206810F1140242E854
:1002F00000100028F2D1206B01280CD120680C30AE
:1003000050E8001F31F01001206810F10C0242E8A3
:1003100000100028F2D120684069400620D52068EE
:10032000143050E8001F31F04001206810F1140231
:1003300042E800100028F2D1A06B002810D0002065
:10034000A16B0865A06B00F0A5FD002808D0A06B8C
:1003500000F006FF202803D110202064032007E0CE
:100360000020E085202084F83E000020206300204B
:1003700010BD38B50400206801682068C268206894
:1003800043690020002011F00F00002807D18D06DE
:1003900005D5950603D5200000F099FA2AE100283A
:1003A00070D0D80702D412F4907F6BD00800C00739
:1003B00005D5D00503D5206C50F001002064480716
:1003C00006D51800C00703D5206C50F00200206449
:1003D000880706D51800C00703D5206C50F004002C
:1003E0002064080707D5900601D4D80703D5206CF0
:1003F00050F008002064206C002842D0880604D504
:10040000900602D5200000F062FA20684069800959
:1004100010F00100216C090701D400282CD0200025
:1004200000F0DAF920684069400621D520681430D0
:1004300050E8001F31F04001206810F1140242E83A
:1004400000100028F2D1A06B00280DD00FF2ED3083
:10045000A16B0865A06B00F06BFD002811D0A06BAC
:10046000A16B096D88470CE0200000F0F5FE08E064
:10047000200000F0F1FE04E0200000F0EDFE00207E
:100480002064B7E0206B012840F0A480C80640F14A
:10049000A180D00640F19E80002000902068006876
:1004A00000902068406800900098206840694006ED
:1004B00055D5A06B00684068010089B200294DD075
:1004C0000100A28D89B2914248D2E085A06BC0693B
:1004D000B0F5807F3BD020680C3050E8001F31F42D
:1004E0008071206810F10C0242E800100028F2D15F
:1004F0002068143050E8001F49084900206810F1B6
:10050000140242E800100028F2D12068143050E8AC
:10051000001F31F04001206810F1140242E8001081
:100520000028F2D1202084F83E00002020632068BB
:100530000C3050E8001F31F01001206810F10C025F
:1005400042E800100028F2D1A06B00F0A3FCA18DBE
:10055000E08D091A89B2200000F094FE4AE0A08DD7
:10056000E18D411AE08D002833D0080080B20028C8
:100570002FD020680C3050E8002F32F490722068A1
:1005800010F10C0343E800200028F2D12068143059
:1005900050E8002F52085200206810F1140343E87D
:1005A00000200028F2D1202084F83E0000202063A3
:1005B00020680C3050E8002F32F01002206810F153
:1005C0000C0343E800200028F2D189B2200000F09B
:1005D00059FE0FE0080605D5100603D5200000F0EF
:1005E00037F907E0480605D5500603D5200000F08E
:1005F00060F9FFE731BD80B50100886B09680968C3
:10060000C9053BD40021C18501680C3151E8002F98
:1006100032F48072016811F10C0343E800210029D3
:10062000F2D10168143151E8002F520852000168DC
:1006300011F1140343E800210029F2D101681431BB
:1006400051E8002F32F04002016811F1140343E831
:1006500000210029F2D1202180F83E10016B0129F0
:100660000CD101680C3151E8002F32F01002016802
:1006700011F10C0343E800210029F2D1016B01299B
:1006800003D1818D00F0FEFD01E000F011FE01BDFF
:1006900080B5806B016B012905D1818D490889B234
:1006A00000F0F0FD01E000F008FE01BD10B50021F2
:1006B000846B20684069C00910F0010094F83D1077
:1006C000212906D1002804D00020E084200000F079
:1006D00072F820684069800910F0010094F83E101B
:1006E000222906D1002804D00020E085200000F057
:1006F00073F8206C50F010002064200000F0ACFD76
:1007000010BD13B5040013000198A062A38500205A
:100710002064222084F83E00DFF8FC04A16BC8634B
:10072000DFF8F804A16B0864DFF8F404A16BC86477
:100730000020A16B086501A89BB202682068011D1A
:10074000A06B00F06DFB0020009020680068009016
:100750002068406800900098002084F83C002069E0
:1007600000280CD020680C3050E8001F51F4807134
:10077000206810F10C0242E800100028F2D1206835
:10078000143050E8001F51F00101206810F11402EC
:1007900042E800100028F2D12068143050E8001F11
:1007A00051F04001206810F1140242E800100028C6
:1007B000F2D1002016BD01680C3151E8002F32F053
:1007C000C002016811F10C0343E800210029F2D1B5
:1007D000202180F83D10704701680C3151E8002F4E
:1007E00032F49072016811F10C0343E800210029F2
:1007F000F2D10168143151E8002F5208520001680B
:1008000011F1140343E800210029F2D1016B012901
:100810000CD101680C3151E8002F32F01002016850
:1008200011F10C0343E800210029F2D1202180F8C6
:100830003E100021016370470000000080B5806B0E
:100840000021C1850021C18400F006FD01BD00002A
:1008500090F83D1021292AD18168B1F5805F0CD133
:100860000169002909D1016A0988C905C90D026811
:100870005160016A891C016205E0016A4A1C02623A
:10088000097802685160C18C491EC18489B200296F
:100890000BD10168C96831F080010268D16001683C
:1008A000C96851F040010068C160002000E00220EA
:1008B000704780B50168C96831F040010268D160B5
:1008C000202180F83D1000F005FE002002BD80B51B
:1008D00090F83E1022296DD18168B1F5805F0DD16D
:1008E000016900290AD10021816A02685268D20593
:1008F000D20D0A80816A891C816217E0826A002118
:100900008168B1F5805F05D08168002906D1016951
:10091000002903D101684968117004E00168496841
:1009200011F07F011170816A491C8162C18D491EDD
:10093000C18589B200293BD10168C96831F0200125
:100940000268D1600168C96831F480710268D160C1
:10095000016849694908490002685161202180F80D
:100960003E10016B01291FD10021016301680C3188
:1009700051E8002F32F01002016811F10C0343E836
:1009800000210029F2D101680968C90608D50021B3
:100990000091016809680091016849680091009917
:1009A000818D00F06FFC01E000F082FC002002E08D
:1009B000002000E0022002BD2DE9F0470500286874
:1009C000016931F44051E868014328680161A96870
:1009D0002869014368690143E86901432868C268DE
:1009E0009048024011432868C1602868416931F489
:1009F0004071A86901432868416128688A49884292
:100A000003D028688949884203D100F010FE040011
:100A100002E000F001FE0400E869B0F5004F7DD16E
:100A20007FF063081926002722000023A6FB02019D
:100A300006FB031107FB02116A6800235B0043EA0F
:100A4000D273520000F00CFE6421B0FBF1FA2200D8
:100A50000023A6FB020106FB031107FB02116A68D3
:100A600000235B0043EAD273520000F0F9FD814697
:100A700022000023A6FB020106FB031107FB021163
:100A80006A6800235B0043EAD273520000F0E8FD7D
:100A90006421B0FBF1F008FB0090C000323064210B
:100AA000B0FBF1F0400010F4F87010EB0A10824631
:100AB00022000023A6FB020106FB031107FB021123
:100AC0006A6800235B0043EAD273520000F0C8FD5D
:100AD00081462000002102000B00A6FB020106FB5C
:100AE000031107FB02116A6800235B0043EAD2731B
:100AF000520000F0B5FD6421B0FBF1F008FB009856
:100B00005FEAC80818F132086420B8FBF0F010F072
:100B1000070010EB0A00296888607BE07FF063081B
:100B20001926002722000023A6FB020106FB031161
:100B300007FB02116A6800239B0043EA927392004C
:100B400000F08EFD6421B0FBF1FA22000023A6FB29
:100B5000020106FB031107FB02116A6800239B00D8
:100B600043EA9273920000F07BFD8146220000234D
:100B7000A6FB020106FB031107FB02116A680023B2
:100B80009B0043EA9273920000F06AFD6421B0FB7F
:100B9000F1F008FB0090000132306421B0FBF1F06D
:100BA00010F0F00010EB0A10824622000023A6FB92
:100BB000020106FB031107FB02116A6800239B0078
:100BC00043EA9273920000F04BFD81462000002121
:100BD00002000B00A6FB020106FB031107FB02113A
:100BE0006A6800239B0043EA9273920000F038FD8C
:100BF0006421B0FBF1F008FB00985FEA081818F1D7
:100C000032086420B8FBF0F010F00F0010EB0A007F
:100C100029688860BDE8F087F7050008910600089C
:100C2000AD060008F369FFFF001001400014014009
:100C300080B5002000903B48016851F4804101607C
:100C4000006810F480400090009800200090364822
:100C5000016851F080510160006810F080500090F0
:100C60000098072000F07BFE01BD38B586B0040077
:100C70001422002101A800F0A1FE20682B4988421F
:100C80004ED1002000902848016851F400310160E5
:100C9000006810F400300090009800200090244874
:100CA000016851F001010160006810F0010000903E
:100CB00000980C2001900220029001200390032054
:100CC00004900720059001A91A4800F081FE1A4DF2
:100CD0001A4828605FF0006068600020A86000206B
:100CE000E8604FF480602861002068610020A861FE
:100CF0004FF48070E86100202862002068622800BC
:100D000000F01EF8002801D000F0E2FBA563AC6300
:100D100000220021262000F026FE262000F034FECE
:100D200007B030BD44380240403802400044004023
:100D300030380240000002400C0000208860024071
:100D400038B50400002000F03DFF0500002C01D163
:100D5000012064E0606A0028022084F83500002049
:100D600084F834002068006840084000216808606A
:100D700020680068C0070BD500F024FF401B062840
:100D8000F6D320206065032084F83500032046E078
:100D900020680168DFF82C04014060680143A06806
:100DA0000143E06801432069014360690143A06990
:100DB0000143E0690143206A0143606A042803D1CA
:100DC000E06A0143206B01432068016020684569A7
:100DD000ED08ED00606A0543606A042810D1A06A3E
:100DE0000543E06A00280BD0200000F0F1F900284C
:100DF00006D040206065012084F8350001200EE017
:100E000020684561200000F0C4F93F22E16D8A406E
:100E1000826000206065012084F83500002032BD2A
:100E200070B504000025A66D94F83400012801D1A6
:100E300002202EE0012084F8340094F835000128C7
:100E400021D1022084F8350000206065200000F0E8
:100E500089F93F21E06D8140B1602068006850F061
:100E6000160021680860206C002805D02068006802
:100E700050F00800216808602068006850F0010008
:100E80002168086003E0002084F83400022528006F
:100E9000C0B270BD70B50400A56D00F093FE0600F1
:100EA00094F83500022806D080206065002084F880
:100EB000340001203BE02068006830F01600216813
:100EC00008602068406930F0800021684861206C2B
:100ED000002802D1A06C002805D02068006830F0FE
:100EE0000800216808602068006840084000216808
:100EF000086020680068C0070ED500F063FE801B04
:100F00000628F6D320206065032084F835000020F1
:100F100084F8340003200AE03F21E06D8140A9609D
:100F2000012084F83500002084F83400002070BDD2
:100F300090F83510022903D080214165012009E095
:100F4000052180F8351001680968490849000068E2
:100F5000016000207047F8B5040000200090DFF821
:100F6000680200684FF41651B0FBF1F5A66D3768C2
:100F70000821E06D11FA00F0074210D020680068E7
:100F800040070CD52068006830F00400226810602B
:100F9000E06D8140B160606D50F001006065E06D12
:100FA0003900C140C8070BD520684069000607D545
:100FB0000121E06D8140B160606D50F0020060651C
:100FC0000421E06D11FA00F007420AD020680068A1
:100FD000800706D5E06D8140B160606D50F004007F
:100FE00060651021E06D11FA00F007422CD02068F6
:100FF0000068000728D5E06D8140B1602068006876
:10100000400311D520680068000306D4206C002836
:101010001AD02000216C884716E0A06C002813D05D
:101020002000A16C88470FE020680068C00505D447
:101030002068006830F0080021680860206C0028F3
:1010400002D02000216C88472021E06D11FA00F0C9
:1010500007425FD020680068C0065BD5E06D814024
:10106000B16094F83500052828D12068006830F078
:101070001600216808602068406930F0800021680F
:101080004861206C002802D1A06C002805D020689F
:10109000006830F00800216808603F21E06D814061
:1010A000B160012084F83500002084F83400206D00
:1010B000002802D02000216D884750E02068006899
:1010C000400311D520680068000306D4606C002836
:1010D00020D02000616C88471CE0E06B002819D00C
:1010E0002000E16B884715E020680068C0050BD43C
:1010F0002068006830F0100021680860012084F842
:101100003500002084F83400E06B002802D0200075
:10111000E16B8847606D002821D0606DC00718D54D
:10112000052084F8350020680068400840002168E8
:1011300008600098401C0090854204D32068006835
:10114000C007F6D4FFE7012084F83500002084F8BA
:101150003400E06C002802D02000E16C8847F1BD2B
:10116000406D704730B40468246834F48024056806
:101170002C60046863608368402B04D103689A6024
:101180000068C16003E0036899600068C26030BC19
:101190007047017801F0FF0110391822B1FBF2F11C
:1011A0000A4A525CC265042905D30168890A89028A
:1011B000091D816503E00168890A89028165806DE6
:1011C000704700003F8010F0040000203423000826
:1011D00002000020936A9169002914D1002B05D0E8
:1011E000022B03D007D3032B0BD00BE0D16AC9012C
:1011F00000D501202EE0D16AB1F1C07F00D10120DD
:1012000028E027E026E09169B1F5005F15D1002BB9
:1012100005D0022B03D004D3032B07D00CE0012010
:1012200018E0D16AC90100D5012013E0D16AB1F1FB
:10123000C07F00D101200DE00CE0002B022B02D971
:10124000DB1E02D006E0012004E0D16AC90100D50E
:101250000120FFE7C0B2704770470EE002684368A4
:10126000024408305FEAC37C44BF4B445B1E52F823
:1012700004CB43F804CB091FF9D150F8041B002913
:10128000ECD1704710B500BF00BF00BF00BF874C56
:101290002000FFF714F8402285492000FEF7CDFF1B
:1012A00084480168096831F008010068016010BDD8
:1012B00000BF00BF00BF00BF704700BF00BF00BF3E
:1012C00000BF704780B500F083FC00F013F800F019
:1012D00097F800F07FF800F063F8402274497348F3
:1012E000FEF7ABFF73480168096831F00801006838
:1012F0000160FEE718B593B03421002206AC20004F
:1013000000F080FC1421002201AC200000F07AFCE7
:10131000002000906848016851F080510160006829
:1013200010F0805000900098002000906348012148
:10133000026861F38F320260006810F44040009050
:101340000098012006905FF48030079002200C90F6
:101350005FF480000D9004200E9050200F9002202A
:101360001090022011900220129006A800F0E4FCD8
:10137000002801D000F0ACF80F200190022002906C
:10138000002003904FF4805004900590022101A8A2
:1013900000F0A2F8002801D000F09AF814B010BDB7
:1013A00080B54248464901604FF416514160002122
:1013B00081600021C160002101610C214161002197
:1013C00081610021C161FEF7FDFE002801D000F01F
:1013D0007FF801BD80B5002000903A48016851F4C3
:1013E00000110160006810F40010009000980022C5
:1013F0000021102000F0B7FA102000F0C5FA01BD5E
:1014000010B586B01421002201AC200000F0FAFBD8
:10141000002000902B48016851F004010160016830
:1014200011F004010091009900210091016851F030
:1014300080010160016811F0800100910099002194
:101440000091016851F001010160016811F0010192
:101450000091009900210091016851F002010160A2
:10146000006810F0020000900098174C0022202124
:10147000200000F083FB4FF4005001905FF4041053
:1014800002900020039001A9104800F0A1FA20204A
:10149000019001200290002003900020049001A9F7
:1014A000200000F095FA06B010BD00006C0000208E
:1014B000B00000200C0000204038024000700040C6
:1014C0000044004030380240000002400008024062
:1014D00072B6FEE7704700002DE9F04104000E00EF
:1014E000002C01D1012092E0564D286810F00F0029
:1014F000B04207D22E70286810F00F00B04201D021
:10150000012084E02078800716D52078400704D594
:101510004D48016851F4E05101602078000704D57E
:101520004948016851F46041016047490A6832F056
:10153000F002A06802430A602078C00735D56068D1
:10154000012805D141480068800313D401205EE0E2
:101550006068022802D06068032805D13B48006813
:10156000800107D4012052E038480068800701D488
:1015700001204CE0344F39688908890060680143D4
:10158000396000F01FFB8046386810F00C0061687D
:10159000B0EB810F09D000F015FBB0EB080041F271
:1015A00089318842F0D3032031E0286810F00F0021
:1015B000864207D22E70286810F00F00B04201D08A
:1015C000012024E02078400706D51F490A6832F43C
:1015D000E052E06802430A602078000707D51A4805
:1015E000016831F46041226951EAC201016000F0F2
:1015F0003DFB1749144A1268C2F30312895CC840C4
:10160000144908601448006800F0A2FD0020BDE8FD
:10161000F08110480068704780B5FFF7FAFF0F4966
:10162000094A1268C2F38222895CC84002BD80B5B3
:10163000FFF7EFFF0949044A1268C2F34232895C9E
:10164000C84002BD003C0240083802400038024059
:10165000F822000804000020000000203C230008BD
:10166000BBBBE1B1B2F5803F80F07E80022A1ED97B
:101670008C46B1FBF2F102FB11C31B0443EA104399
:10168000B3FBF2FC02FB1C3380B240EA0343B3FB22
:10169000F2F002FB103240EA0C4000237047022AAD
:1016A00005D98446B0FBF2F002FB10C270474AB184
:1016B00005D100F0010249085FEA300070470022BE
:1016C0000023704700F06ABD0B00020000210020DB
:1016D0007047904271EB030CF6D3B3F5803F2FD2E5
:1016E000F0B5B3FA83F7B1FA81F4A7F10F0E3D1B01
:1016F0005340CEF1200602FA0EF2F3415340B5F109
:101700000F0746D80F3C2C444140C4F12006A040AE
:10171000F1414140B1FBF3F603FB1611A2FB064574
:10172000001BA94102D2761E8018594180EA0102AD
:1017300021FA0EF362FA0EF200215A403046F0BD53
:1017400030B4B1FBF3FC03FB1C11A2FB0C45001BE6
:10175000A94103D2ACF1010C8018594130BC0246BA
:101760000B46604600217047B2F1807F65D3F0B52B
:10177000B2FA82F7B1FA81F4C7F10F063D1B22FAE3
:1017800006F307F1110EF24120355A40B5F10F076B
:10179000B8D94140C4F12006A040F1414140B1FB1D
:1017A000F3FC03FB1C11A2FB0C45001BA94103D257
:1017B000BCF1010C801859410F2F12D30F3FC90300
:1017C00041EA5041B1FBF3F603FB1611A2FB0645BB
:1017D000D4EBC030A94102D2761E8018594146EAA6
:1017E000CC3C07B34140C7F12006B840F14141402D
:1017F000B1FBF3F603FB1611A2FB0645001BA94142
:1018000002D2761E8018594180EA010221FA0EF3B5
:10181000C7F1200462FA0EF20CFA07F05A402CFAD3
:1018200004F13043F0BD80EA010221FA0EF30021F9
:1018300062FA0EF260465A40F0BD8C46B1FBF2F1FE
:1018400002FB11C31B0243EA1063B3FBF2FC02FB71
:101850001C331B024CEA002043EA1063B3FBF2FC8A
:1018600002FB1C331B024CEA002043EA1063B3FB6B
:10187000F2FC02FB1C331B024CEA002043EA10631B
:10188000B3FBF2FC02FB1C324CEA00200023704741
:1018900010F00700414B1A684FF6FF010A4052EA68
:1018A00000223F4802431A6070473C480068C0F37A
:1018B00002207047010049B2002908D4012210F02B
:1018C0001F018A40374940B2400941F82020704743
:1018D000020052B2002A04D40901334A40B2115422
:1018E00007E00901314A40B210F00F00104400F83F
:1018F000041C704710B410F00700D0F10703052B4B
:1019000001D3042301E0D0F10703041D072C01D209
:10191000002000E0C01E012414FA03F35B1E1940EE
:10192000814014FA00F0401E1040084310BC70477C
:1019300080B5411EB1F1807F01D301200EE0401E31
:101940001B4908600F215FF0FF30FFF7C1FF002047
:1019500018490860072018490860002002BD80B5BA
:10196000FFF796FF01BD70B504000D0016000020C2
:10197000FFF79BFF32002900FFF7BCFF01002000AA
:1019800040B2FFF7A5FF70BD80B540B2FFF792FFF0
:1019900001BD80B5FFF7CCFF02BD00000CED00E0FB
:1019A0000000FA0500E100E000E400E018ED00E0CE
:1019B00014E000E018E000E010E000E010B504469C
:1019C00010460A460146204600F01CF9204610BD8C
:1019D000F8B4002200220022002336E0072604E0AB
:1019E000DFF8AC61B042F9D10626F6B29F0017F0DD
:1019F0000C07BE4035431E00B60842F82650DFF8FB
:101A000094512A68A2434E68F60200D522432A6008
:101A1000DFF884512A68A2434E68B60200D52243FB
:101A20002A60DFF878512A68A2434E68B60300D5D1
:101A300022432A60DFF868512A68A2434E68F60301
:101A400001D5144322002A605B1C102B80F0948087
:101A5000012616FA03F20C6814409442F4D10A7974
:101A600012F00302012A04D00A7912F00302022ABA
:101A700012D1856803275A009740BD43CF685A00AA
:101A800097403D43856042689E40B2434D68C5F330
:101A900000159D402A4342600A7912F00302032A8E
:101AA00009D0C56803265A009640B5438E685A008F
:101AB00096403543C5600A7912F00302022A15D117
:101AC0001A00D20800EB8202126A0F259E0016F05F
:101AD0001C06B540AA430D699E0016F01C06B540D1
:101AE0002A431D00ED0800EB85052A6205680326E0
:101AF0005A009640B5430E7916F003065A009640F8
:101B0000354305604A6812F4403F9DD000220092A0
:101B1000244A156855F480451560126812F4804215
:101B20000092009A204A1D00AD0852F825500F2659
:101B30009F0017F00C07BE40B5431C4EB04201D1C8
:101B4000002652E71A4EB04201D101264DE7194E48
:101B5000B04201D1022648E7174EB04201D1032618
:101B600043E7164EB04201D104263EE7144EB04280
:101B70007FF436AF052638E7F1BC7047D2B2002AB1
:101B800002D089B2816102E089B2090481617047A3
:101B900000180240083C01400C3C0140043C01405C
:101BA000003C014044380240083801400000024037
:101BB0000004024000080240000C024000100240F5
:101BC0000014024001480068704700BFF000002088
:101BD00080B50B48016851F400710160016851F44F
:101BE00080610160016851F4807101600320FFF79A
:101BF000B6FE002000F0ACFAFFF71AF8002002BD94
:101C0000003C024062F30F2262F31F42401810F0C2
:101C1000030308D0C91A1FD3DB0748BF00F8012D02
:101C200028BF20F8022D130030B414461546103991
:101C300028BF20E93C00FAD8490728BF20E90C005A
:101C400048BF40F8042D890028BF20F8022D48BF66
:101C500000F8012D30BC7047C91818BF00F8012DDD
:101C6000CB0728BF00F8012D7047000010B50020F9
:101C700000200020002000202E48006810F00C00FA
:101C8000002806D0042807D0082808D00C282BD01C
:101C90004DE0DFF890044CE0DFF88C0449E0DFF819
:101CA0008044226812F03F02206840020AD5206872
:101CB000C0F38810DFF87014A1FB00010023FFF7C8
:101CC000CFFC09E02068C0F38810DFF85814A1FBAE
:101CD00000010023FFF7C4FC2168C1F30141491C46
:101CE0004900B0FBF1F024E0DFF83444226812F040
:101CF0003F02206840020AD52068C0F38810DFF850
:101D00002814A1FB00010023FFF7AAFC09E02068CA
:101D1000C0F38810DFF80C14A1FB00010023FFF7CB
:101D20009FFC2168C1F30271B0FBF1F001E0DFF824
:101D3000F40310BD083802402DE9FC410400002CDA
:101D400001D10120E9E12078C00769D5DFF8E80377
:101D5000016811F00C01042913D0016811F00C0185
:101D6000082904D1DFF8B8130968490209D40068CA
:101D700010F00C000C280ED1DFF8A403006840021C
:101D800009D5DFF8AC030068800349D560680028F6
:101D900046D10120C1E16068B0F5803F06D1DFF88F
:101DA0009003016851F48031016018E06068B0F57B
:101DB000A02F0AD1DFF87803016851F48021016077
:101DC000016851F48031016009E0DFF864030168C3
:101DD00031F480310160016831F480210160606874
:101DE00000280ED0FFF7EEFE0500DFF84403006880
:101DF000800315D4FFF7E6FE401B6528F5D30320CA
:101E00008BE1FFF7DFFE0500DFF8240300688003A5
:101E100006D5FFF7D7FE401B6528F5D303207CE1EC
:101E2000207880072AD5DFF81003016811F00C0F25
:101E300013D0016811F00C01082904D1DFF8E01279
:101E40000968490209D5006810F00C000C282ED151
:101E5000DFF8CC020068400229D4DFF8D402016820
:101E6000890704D5E168012901D0012055E1016805
:101E700031F0F801226951EAC201016020780007BF
:101E800056D56069002842D00120DFF8B012086002
:101E9000FFF798FE0500DFF89C020068800747D432
:101EA000FFF790FE401B0328F5D3032035E1E068DF
:101EB00000281AD00120DFF888120860FFF782FEA0
:101EC0000500DFF86C020168890706D4FFF77AFE87
:101ED000401B0328F5D303201FE1016831F0F8010E
:101EE000226951EAC2010160C8E70020DFF8501200
:101EF0000860FFF767FE05008D4800688007BDD5C4
:101F0000FFF760FE401B0328F6D3032005E1002005
:101F10008A490860FFF756FE05008648006880077A
:101F200006D5FFF74FFE401B0328F6D30320F4E04D
:101F3000207840076FD50026824D2868C0000BD45A
:101F400000200090286850F080502860286810F029
:101F500080500090009801267B4F3868C00511D44E
:101F6000386850F480703860FFF72CFE804638687F
:101F7000C00507D4FFF726FEB0EB08000328F6D310
:101F80000320CAE0A068012805D16848016851F023
:101F90000101016015E0A068052809D163480168C6
:101FA00051F004010160016851F00101016008E095
:101FB0005E480168490849000160016831F0040188
:101FC0000160A06800280FD0FFF7FCFD070057480C
:101FD0000068800718D4FFF7F5FDC01B41F2893176
:101FE0008842F4D3032098E0FFF7ECFD07004F4848
:101FF0000068800708D5FFF7E5FDC01B41F2893175
:102000008842F4D3032088E0F6B2012E03D1286879
:1020100030F080502860A06900287DD046480068D4
:1020200010F00C00082846D0A069022832D1474E93
:1020300000203060FFF7C6FD07003D4D2868800195
:1020400006D5FFF7BFFDC01B0328F6D3032064E0CD
:10205000E169206A0143606A51EA8011A06A400880
:10206000401E51EA0041E06A51EA0061206B51EAEA
:1020700000712B48016001203060FFF7A3FD0400D0
:102080002868800148D4FFF79DFD001B0328F7D383
:10209000032042E000202D490860FFF793FD040073
:1020A00023480068800137D5FFF78CFD001B03280B
:1020B000F6D3032031E0A069012801D101202CE0F2
:1020C00017480068A169012924D010F48001E26951
:1020D00091421FD110F03F01226A91421AD147F676
:1020E000C0710140626AB1EB821F13D110F440311C
:1020F000A26A5208521EB1EB024F0BD110F0706170
:10210000E26AB1EB026F05D110F0E040216BB0EB59
:10211000017F01D0012000E00020BDE8F681000031
:10212000043802400024F40000127A0070380240A3
:10213000003802407438024008380240800E47429E
:1021400000004742403802400070004060004742B3
:1021500010B504004FF47A700D490978B0FBF1F026
:102160000C490968B1FBF0F0FFF713FC002801D01F
:1021700001200CE0102C09D2002221005FF0FF307A
:10218000FFF7F1FB04480460002000E0012010BDCF
:10219000080000200400002000000020704730B438
:1021A000002512E050F8042BD30744BF4A44521EC6
:1021B000091F042942F8045BFAD213468C0744BF76
:1021C00015809B1CC90748BF1D7050F8041B0029CF
:1021D000E8D130BC70470000FEE7FEE7FEE7FEE70F
:1021E000FEE770477047704780B500F00FF801BDFB
:1021F00080B50448FEF7AFFE01BD80B50248FEF78A
:10220000B8F801BD0C0000206C00002003480168F4
:10221000034A127889180160704700BFF00000205F
:102220000800002010B5074979441831064C7C4459
:10223000163404E00A68081D114488470146A1428B
:10224000F8D110BD2C0000004C0000004EF6885163
:10225000CEF20001086840F470000860BFF34F8FB1
:10226000BFF36F8F4FF00170E1EE100A704700006E
:102270002FFFFFFFE80000000C000020000000001E
:10228000DBEFFFFF0C000000A000000000000020BA
:102290000000000000F00DF8002801D0FFF7C2FF99
:1022A000AFF300800020AFF30080FFF70BF800F0E1
:1022B00002F80120704700F001B8000007463846D8
:1022C00000F002F8FBE7000080B5AFF30080024A9F
:1022D00011001820ABBEFBE72600020005480146AE
:1022E00003B4684680F30988AFF30080FFF7AEFFC0
:1022F000FFF7D0FFA5EDF5FE000000000000000094
:102300000102030406070809014880470148004705
:1023100019230008DD2200080248016851F4700109
:102320000160704788ED00E0100000000024F40018
:102330000100000000061016000610160000000044
:1023400001020304FFF7FEBFFFF7FEBFFFF7FEBF6A
:10235000FFF7FEBFFFF7FEBFFFF7FEBFFFF7FEBFB1
:10236000FFF7FEBFFFF7FEBFFFF7FEBFFFF7FEBFA1
:10237000FFF7FEBFFFF7FEBFFFF7FEBFFFF7FEBF91
:10238000FFF7FEBFFFF7FEBFFFF7FEBFFFF7FEBF81
:10239000FFF7FEBFFFF7FEBFFFF7FEBFFFF7FEBF71
:1023A000FFF7FEBFFFF7FEBFFFF7FEBFFFF7FEBF61
:1023B000FFF7FEBFFFF7FEBFFFF7FEBFFFF7FEBF51
:1023C000FFF7FEBFFFF7FEBFFFF7FEBFFFF7FEBF41
:1023D000FFF7FEBFFFF7FEBFFFF7FEBFFFF7FEBF31
:1023E000FFF7FEBFFFF7FEBFFFF7FEBFFFF7FEBF21
:1023F000FFF7FEBFFFF7FEBFFFF7FEBFFFF7FEBF11
:10240000FFF7FEBFFFF7FEBFFFF7FEBFFFF7FEBF00
:10241000FFF7FEBFFFF7FEBFFFF7FEBFFFF7FEBFF0
:10242000FFF7FEBFFFF7FEBFFFF7FEBFFFF7FEBFE0
:10243000FFF7FEBFFFF7FEBFFFF7FEBFFFF7FEBFD0
:10244000FFF7FEBFFFF7FEBFFFF7FEBFFFF7FEBFC0
:10245000FFF7FEBFFFF7FEBFFFF7FEBFFFF7FEBFB0
:10246000FFF7FEBFFFF7FEBFFFF7FEBFFFF7FEBFA0
:10247000FFF7FEBFFFF7FEBFFFF7FEBFFFF7FEBF90
:10248000FFF7FEBFFFF7FEBFFFF7FEBFFFF7FEBF80
:04249000FFF7FEBF95
:04000005080022DDF0
:00000001FF
